{
  "address": "0x5E3FF1a3B34c06Beb247b38484067c845cfe6fAE",
  "abi": [
    {
      "inputs": [
        {
          "internalType": "contract ISchemaRegistry",
          "name": "registry",
          "type": "address"
        }
      ],
      "stateMutability": "nonpayable",
      "type": "constructor"
    },
    {
      "inputs": [],
      "name": "AccessDenied",
      "type": "error"
    },
    {
      "inputs": [],
      "name": "AlreadyRevoked",
      "type": "error"
    },
    {
      "inputs": [],
      "name": "AlreadyRevokedOffchain",
      "type": "error"
    },
    {
      "inputs": [],
      "name": "AlreadyTimestamped",
      "type": "error"
    },
    {
      "inputs": [],
      "name": "DeadlineExpired",
      "type": "error"
    },
    {
      "inputs": [],
      "name": "FailedCall",
      "type": "error"
    },
    {
      "inputs": [
        {
          "internalType": "uint256",
          "name": "balance",
          "type": "uint256"
        },
        {
          "internalType": "uint256",
          "name": "needed",
          "type": "uint256"
        }
      ],
      "name": "InsufficientBalance",
      "type": "error"
    },
    {
      "inputs": [],
      "name": "InsufficientValue",
      "type": "error"
    },
    {
      "inputs": [],
      "name": "InvalidAttestation",
      "type": "error"
    },
    {
      "inputs": [],
      "name": "InvalidAttestations",
      "type": "error"
    },
    {
      "inputs": [],
      "name": "InvalidExpirationTime",
      "type": "error"
    },
    {
      "inputs": [],
      "name": "InvalidLength",
      "type": "error"
    },
    {
      "inputs": [],
      "name": "InvalidNonce",
      "type": "error"
    },
    {
      "inputs": [],
      "name": "InvalidOffset",
      "type": "error"
    },
    {
      "inputs": [],
      "name": "InvalidRegistry",
      "type": "error"
    },
    {
      "inputs": [],
      "name": "InvalidRevocation",
      "type": "error"
    },
    {
      "inputs": [],
      "name": "InvalidRevocations",
      "type": "error"
    },
    {
      "inputs": [],
      "name": "InvalidSchema",
      "type": "error"
    },
    {
      "inputs": [],
      "name": "InvalidShortString",
      "type": "error"
    },
    {
      "inputs": [],
      "name": "InvalidSignature",
      "type": "error"
    },
    {
      "inputs": [],
      "name": "InvalidVerifier",
      "type": "error"
    },
    {
      "inputs": [],
      "name": "Irrevocable",
      "type": "error"
    },
    {
      "inputs": [],
      "name": "NotFound",
      "type": "error"
    },
    {
      "inputs": [],
      "name": "NotPayable",
      "type": "error"
    },
    {
      "inputs": [
        {
          "internalType": "string",
          "name": "str",
          "type": "string"
        }
      ],
      "name": "StringTooLong",
      "type": "error"
    },
    {
      "inputs": [],
      "name": "WrongSchema",
      "type": "error"
    },
    {
      "anonymous": false,
      "inputs": [
        {
          "indexed": true,
          "internalType": "address",
          "name": "recipient",
          "type": "address"
        },
        {
          "indexed": true,
          "internalType": "address",
          "name": "attester",
          "type": "address"
        },
        {
          "indexed": false,
          "internalType": "bytes32",
          "name": "uid",
          "type": "bytes32"
        },
        {
          "indexed": true,
          "internalType": "bytes32",
          "name": "schemaUID",
          "type": "bytes32"
        }
      ],
      "name": "Attested",
      "type": "event"
    },
    {
      "anonymous": false,
      "inputs": [],
      "name": "EIP712DomainChanged",
      "type": "event"
    },
    {
      "anonymous": false,
      "inputs": [
        {
          "indexed": false,
          "internalType": "uint256",
          "name": "oldNonce",
          "type": "uint256"
        },
        {
          "indexed": false,
          "internalType": "uint256",
          "name": "newNonce",
          "type": "uint256"
        }
      ],
      "name": "NonceIncreased",
      "type": "event"
    },
    {
      "anonymous": false,
      "inputs": [
        {
          "indexed": true,
          "internalType": "address",
          "name": "recipient",
          "type": "address"
        },
        {
          "indexed": true,
          "internalType": "address",
          "name": "attester",
          "type": "address"
        },
        {
          "indexed": false,
          "internalType": "bytes32",
          "name": "uid",
          "type": "bytes32"
        },
        {
          "indexed": true,
          "internalType": "bytes32",
          "name": "schemaUID",
          "type": "bytes32"
        }
      ],
      "name": "Revoked",
      "type": "event"
    },
    {
      "anonymous": false,
      "inputs": [
        {
          "indexed": true,
          "internalType": "address",
          "name": "revoker",
          "type": "address"
        },
        {
          "indexed": true,
          "internalType": "bytes32",
          "name": "data",
          "type": "bytes32"
        },
        {
          "indexed": true,
          "internalType": "uint64",
          "name": "timestamp",
          "type": "uint64"
        }
      ],
      "name": "RevokedOffchain",
      "type": "event"
    },
    {
      "anonymous": false,
      "inputs": [
        {
          "indexed": true,
          "internalType": "bytes32",
          "name": "data",
          "type": "bytes32"
        },
        {
          "indexed": true,
          "internalType": "uint64",
          "name": "timestamp",
          "type": "uint64"
        }
      ],
      "name": "Timestamped",
      "type": "event"
    },
    {
      "inputs": [
        {
          "components": [
            {
              "internalType": "bytes32",
              "name": "schema",
              "type": "bytes32"
            },
            {
              "components": [
                {
                  "internalType": "address",
                  "name": "recipient",
                  "type": "address"
                },
                {
                  "internalType": "uint64",
                  "name": "expirationTime",
                  "type": "uint64"
                },
                {
                  "internalType": "bool",
                  "name": "revocable",
                  "type": "bool"
                },
                {
                  "internalType": "bytes32",
                  "name": "refUID",
                  "type": "bytes32"
                },
                {
                  "internalType": "bytes",
                  "name": "data",
                  "type": "bytes"
                },
                {
                  "internalType": "uint256",
                  "name": "value",
                  "type": "uint256"
                }
              ],
              "internalType": "struct AttestationRequestData",
              "name": "data",
              "type": "tuple"
            }
          ],
          "internalType": "struct AttestationRequest",
          "name": "request",
          "type": "tuple"
        }
      ],
      "name": "attest",
      "outputs": [
        {
          "internalType": "bytes32",
          "name": "",
          "type": "bytes32"
        }
      ],
      "stateMutability": "payable",
      "type": "function"
    },
    {
      "inputs": [
        {
          "components": [
            {
              "internalType": "bytes32",
              "name": "schema",
              "type": "bytes32"
            },
            {
              "components": [
                {
                  "internalType": "address",
                  "name": "recipient",
                  "type": "address"
                },
                {
                  "internalType": "uint64",
                  "name": "expirationTime",
                  "type": "uint64"
                },
                {
                  "internalType": "bool",
                  "name": "revocable",
                  "type": "bool"
                },
                {
                  "internalType": "bytes32",
                  "name": "refUID",
                  "type": "bytes32"
                },
                {
                  "internalType": "bytes",
                  "name": "data",
                  "type": "bytes"
                },
                {
                  "internalType": "uint256",
                  "name": "value",
                  "type": "uint256"
                }
              ],
              "internalType": "struct AttestationRequestData",
              "name": "data",
              "type": "tuple"
            },
            {
              "components": [
                {
                  "internalType": "uint8",
                  "name": "v",
                  "type": "uint8"
                },
                {
                  "internalType": "bytes32",
                  "name": "r",
                  "type": "bytes32"
                },
                {
                  "internalType": "bytes32",
                  "name": "s",
                  "type": "bytes32"
                }
              ],
              "internalType": "struct Signature",
              "name": "signature",
              "type": "tuple"
            },
            {
              "internalType": "address",
              "name": "attester",
              "type": "address"
            },
            {
              "internalType": "uint64",
              "name": "deadline",
              "type": "uint64"
            }
          ],
          "internalType": "struct DelegatedAttestationRequest",
          "name": "delegatedRequest",
          "type": "tuple"
        }
      ],
      "name": "attestByDelegation",
      "outputs": [
        {
          "internalType": "bytes32",
          "name": "",
          "type": "bytes32"
        }
      ],
      "stateMutability": "payable",
      "type": "function"
    },
    {
      "inputs": [],
      "name": "eip712Domain",
      "outputs": [
        {
          "internalType": "bytes1",
          "name": "fields",
          "type": "bytes1"
        },
        {
          "internalType": "string",
          "name": "name",
          "type": "string"
        },
        {
          "internalType": "string",
          "name": "version",
          "type": "string"
        },
        {
          "internalType": "uint256",
          "name": "chainId",
          "type": "uint256"
        },
        {
          "internalType": "address",
          "name": "verifyingContract",
          "type": "address"
        },
        {
          "internalType": "bytes32",
          "name": "salt",
          "type": "bytes32"
        },
        {
          "internalType": "uint256[]",
          "name": "extensions",
          "type": "uint256[]"
        }
      ],
      "stateMutability": "view",
      "type": "function"
    },
    {
      "inputs": [],
      "name": "getAttestTypeHash",
      "outputs": [
        {
          "internalType": "bytes32",
          "name": "",
          "type": "bytes32"
        }
      ],
      "stateMutability": "pure",
      "type": "function"
    },
    {
      "inputs": [
        {
          "internalType": "bytes32",
          "name": "uid",
          "type": "bytes32"
        }
      ],
      "name": "getAttestation",
      "outputs": [
        {
          "components": [
            {
              "internalType": "bytes32",
              "name": "uid",
              "type": "bytes32"
            },
            {
              "internalType": "bytes32",
              "name": "schema",
              "type": "bytes32"
            },
            {
              "internalType": "uint64",
              "name": "time",
              "type": "uint64"
            },
            {
              "internalType": "uint64",
              "name": "expirationTime",
              "type": "uint64"
            },
            {
              "internalType": "uint64",
              "name": "revocationTime",
              "type": "uint64"
            },
            {
              "internalType": "bytes32",
              "name": "refUID",
              "type": "bytes32"
            },
            {
              "internalType": "address",
              "name": "recipient",
              "type": "address"
            },
            {
              "internalType": "address",
              "name": "attester",
              "type": "address"
            },
            {
              "internalType": "bool",
              "name": "revocable",
              "type": "bool"
            },
            {
              "internalType": "bytes",
              "name": "data",
              "type": "bytes"
            }
          ],
          "internalType": "struct Attestation",
          "name": "",
          "type": "tuple"
        }
      ],
      "stateMutability": "view",
      "type": "function"
    },
    {
      "inputs": [],
      "name": "getDomainSeparator",
      "outputs": [
        {
          "internalType": "bytes32",
          "name": "",
          "type": "bytes32"
        }
      ],
      "stateMutability": "view",
      "type": "function"
    },
    {
      "inputs": [],
      "name": "getName",
      "outputs": [
        {
          "internalType": "string",
          "name": "",
          "type": "string"
        }
      ],
      "stateMutability": "view",
      "type": "function"
    },
    {
      "inputs": [
        {
          "internalType": "address",
          "name": "account",
          "type": "address"
        }
      ],
      "name": "getNonce",
      "outputs": [
        {
          "internalType": "uint256",
          "name": "",
          "type": "uint256"
        }
      ],
      "stateMutability": "view",
      "type": "function"
    },
    {
      "inputs": [
        {
          "internalType": "address",
          "name": "revoker",
          "type": "address"
        },
        {
          "internalType": "bytes32",
          "name": "data",
          "type": "bytes32"
        }
      ],
      "name": "getRevokeOffchain",
      "outputs": [
        {
          "internalType": "uint64",
          "name": "",
          "type": "uint64"
        }
      ],
      "stateMutability": "view",
      "type": "function"
    },
    {
      "inputs": [],
      "name": "getRevokeTypeHash",
      "outputs": [
        {
          "internalType": "bytes32",
          "name": "",
          "type": "bytes32"
        }
      ],
      "stateMutability": "pure",
      "type": "function"
    },
    {
      "inputs": [],
      "name": "getSchemaRegistry",
      "outputs": [
        {
          "internalType": "contract ISchemaRegistry",
          "name": "",
          "type": "address"
        }
      ],
      "stateMutability": "view",
      "type": "function"
    },
    {
      "inputs": [
        {
          "internalType": "bytes32",
          "name": "data",
          "type": "bytes32"
        }
      ],
      "name": "getTimestamp",
      "outputs": [
        {
          "internalType": "uint64",
          "name": "",
          "type": "uint64"
        }
      ],
      "stateMutability": "view",
      "type": "function"
    },
    {
      "inputs": [
        {
          "internalType": "uint256",
          "name": "newNonce",
          "type": "uint256"
        }
      ],
      "name": "increaseNonce",
      "outputs": [],
      "stateMutability": "nonpayable",
      "type": "function"
    },
    {
      "inputs": [
        {
          "internalType": "bytes32",
          "name": "uid",
          "type": "bytes32"
        }
      ],
      "name": "isAttestationValid",
      "outputs": [
        {
          "internalType": "bool",
          "name": "",
          "type": "bool"
        }
      ],
      "stateMutability": "view",
      "type": "function"
    },
    {
      "inputs": [
        {
          "components": [
            {
              "internalType": "bytes32",
              "name": "schema",
              "type": "bytes32"
            },
            {
              "components": [
                {
                  "internalType": "address",
                  "name": "recipient",
                  "type": "address"
                },
                {
                  "internalType": "uint64",
                  "name": "expirationTime",
                  "type": "uint64"
                },
                {
                  "internalType": "bool",
                  "name": "revocable",
                  "type": "bool"
                },
                {
                  "internalType": "bytes32",
                  "name": "refUID",
                  "type": "bytes32"
                },
                {
                  "internalType": "bytes",
                  "name": "data",
                  "type": "bytes"
                },
                {
                  "internalType": "uint256",
                  "name": "value",
                  "type": "uint256"
                }
              ],
              "internalType": "struct AttestationRequestData[]",
              "name": "data",
              "type": "tuple[]"
            }
          ],
          "internalType": "struct MultiAttestationRequest[]",
          "name": "multiRequests",
          "type": "tuple[]"
        }
      ],
      "name": "multiAttest",
      "outputs": [
        {
          "internalType": "bytes32[]",
          "name": "",
          "type": "bytes32[]"
        }
      ],
      "stateMutability": "payable",
      "type": "function"
    },
    {
      "inputs": [
        {
          "components": [
            {
              "internalType": "bytes32",
              "name": "schema",
              "type": "bytes32"
            },
            {
              "components": [
                {
                  "internalType": "address",
                  "name": "recipient",
                  "type": "address"
                },
                {
                  "internalType": "uint64",
                  "name": "expirationTime",
                  "type": "uint64"
                },
                {
                  "internalType": "bool",
                  "name": "revocable",
                  "type": "bool"
                },
                {
                  "internalType": "bytes32",
                  "name": "refUID",
                  "type": "bytes32"
                },
                {
                  "internalType": "bytes",
                  "name": "data",
                  "type": "bytes"
                },
                {
                  "internalType": "uint256",
                  "name": "value",
                  "type": "uint256"
                }
              ],
              "internalType": "struct AttestationRequestData[]",
              "name": "data",
              "type": "tuple[]"
            },
            {
              "components": [
                {
                  "internalType": "uint8",
                  "name": "v",
                  "type": "uint8"
                },
                {
                  "internalType": "bytes32",
                  "name": "r",
                  "type": "bytes32"
                },
                {
                  "internalType": "bytes32",
                  "name": "s",
                  "type": "bytes32"
                }
              ],
              "internalType": "struct Signature[]",
              "name": "signatures",
              "type": "tuple[]"
            },
            {
              "internalType": "address",
              "name": "attester",
              "type": "address"
            },
            {
              "internalType": "uint64",
              "name": "deadline",
              "type": "uint64"
            }
          ],
          "internalType": "struct MultiDelegatedAttestationRequest[]",
          "name": "multiDelegatedRequests",
          "type": "tuple[]"
        }
      ],
      "name": "multiAttestByDelegation",
      "outputs": [
        {
          "internalType": "bytes32[]",
          "name": "",
          "type": "bytes32[]"
        }
      ],
      "stateMutability": "payable",
      "type": "function"
    },
    {
      "inputs": [
        {
          "components": [
            {
              "internalType": "bytes32",
              "name": "schema",
              "type": "bytes32"
            },
            {
              "components": [
                {
                  "internalType": "bytes32",
                  "name": "uid",
                  "type": "bytes32"
                },
                {
                  "internalType": "uint256",
                  "name": "value",
                  "type": "uint256"
                }
              ],
              "internalType": "struct RevocationRequestData[]",
              "name": "data",
              "type": "tuple[]"
            }
          ],
          "internalType": "struct MultiRevocationRequest[]",
          "name": "multiRequests",
          "type": "tuple[]"
        }
      ],
      "name": "multiRevoke",
      "outputs": [],
      "stateMutability": "payable",
      "type": "function"
    },
    {
      "inputs": [
        {
          "components": [
            {
              "internalType": "bytes32",
              "name": "schema",
              "type": "bytes32"
            },
            {
              "components": [
                {
                  "internalType": "bytes32",
                  "name": "uid",
                  "type": "bytes32"
                },
                {
                  "internalType": "uint256",
                  "name": "value",
                  "type": "uint256"
                }
              ],
              "internalType": "struct RevocationRequestData[]",
              "name": "data",
              "type": "tuple[]"
            },
            {
              "components": [
                {
                  "internalType": "uint8",
                  "name": "v",
                  "type": "uint8"
                },
                {
                  "internalType": "bytes32",
                  "name": "r",
                  "type": "bytes32"
                },
                {
                  "internalType": "bytes32",
                  "name": "s",
                  "type": "bytes32"
                }
              ],
              "internalType": "struct Signature[]",
              "name": "signatures",
              "type": "tuple[]"
            },
            {
              "internalType": "address",
              "name": "revoker",
              "type": "address"
            },
            {
              "internalType": "uint64",
              "name": "deadline",
              "type": "uint64"
            }
          ],
          "internalType": "struct MultiDelegatedRevocationRequest[]",
          "name": "multiDelegatedRequests",
          "type": "tuple[]"
        }
      ],
      "name": "multiRevokeByDelegation",
      "outputs": [],
      "stateMutability": "payable",
      "type": "function"
    },
    {
      "inputs": [
        {
          "internalType": "bytes32[]",
          "name": "data",
          "type": "bytes32[]"
        }
      ],
      "name": "multiRevokeOffchain",
      "outputs": [
        {
          "internalType": "uint64",
          "name": "",
          "type": "uint64"
        }
      ],
      "stateMutability": "nonpayable",
      "type": "function"
    },
    {
      "inputs": [
        {
          "internalType": "bytes32[]",
          "name": "data",
          "type": "bytes32[]"
        }
      ],
      "name": "multiTimestamp",
      "outputs": [
        {
          "internalType": "uint64",
          "name": "",
          "type": "uint64"
        }
      ],
      "stateMutability": "nonpayable",
      "type": "function"
    },
    {
      "inputs": [
        {
          "components": [
            {
              "internalType": "bytes32",
              "name": "schema",
              "type": "bytes32"
            },
            {
              "components": [
                {
                  "internalType": "bytes32",
                  "name": "uid",
                  "type": "bytes32"
                },
                {
                  "internalType": "uint256",
                  "name": "value",
                  "type": "uint256"
                }
              ],
              "internalType": "struct RevocationRequestData",
              "name": "data",
              "type": "tuple"
            }
          ],
          "internalType": "struct RevocationRequest",
          "name": "request",
          "type": "tuple"
        }
      ],
      "name": "revoke",
      "outputs": [],
      "stateMutability": "payable",
      "type": "function"
    },
    {
      "inputs": [
        {
          "components": [
            {
              "internalType": "bytes32",
              "name": "schema",
              "type": "bytes32"
            },
            {
              "components": [
                {
                  "internalType": "bytes32",
                  "name": "uid",
                  "type": "bytes32"
                },
                {
                  "internalType": "uint256",
                  "name": "value",
                  "type": "uint256"
                }
              ],
              "internalType": "struct RevocationRequestData",
              "name": "data",
              "type": "tuple"
            },
            {
              "components": [
                {
                  "internalType": "uint8",
                  "name": "v",
                  "type": "uint8"
                },
                {
                  "internalType": "bytes32",
                  "name": "r",
                  "type": "bytes32"
                },
                {
                  "internalType": "bytes32",
                  "name": "s",
                  "type": "bytes32"
                }
              ],
              "internalType": "struct Signature",
              "name": "signature",
              "type": "tuple"
            },
            {
              "internalType": "address",
              "name": "revoker",
              "type": "address"
            },
            {
              "internalType": "uint64",
              "name": "deadline",
              "type": "uint64"
            }
          ],
          "internalType": "struct DelegatedRevocationRequest",
          "name": "delegatedRequest",
          "type": "tuple"
        }
      ],
      "name": "revokeByDelegation",
      "outputs": [],
      "stateMutability": "payable",
      "type": "function"
    },
    {
      "inputs": [
        {
          "internalType": "bytes32",
          "name": "data",
          "type": "bytes32"
        }
      ],
      "name": "revokeOffchain",
      "outputs": [
        {
          "internalType": "uint64",
          "name": "",
          "type": "uint64"
        }
      ],
      "stateMutability": "nonpayable",
      "type": "function"
    },
    {
      "inputs": [
        {
          "internalType": "bytes32",
          "name": "data",
          "type": "bytes32"
        }
      ],
      "name": "timestamp",
      "outputs": [
        {
          "internalType": "uint64",
          "name": "",
          "type": "uint64"
        }
      ],
      "stateMutability": "nonpayable",
      "type": "function"
    },
    {
      "inputs": [],
      "name": "version",
      "outputs": [
        {
          "internalType": "string",
          "name": "",
          "type": "string"
        }
      ],
      "stateMutability": "view",
      "type": "function"
    }
  ],
  "transactionHash": "0xcc8267bbe7c0a659afde935f002d010f0192c2a88c6ee857957360b6646c53ea",
  "args": [
    "0xa4Ab012Ba80B127E5B543719FFb50363D78C2564"
  ],
  "numDeployments": 1,
  "solcInputHash": "adf7cb9226cfd56ea345ce954186e8c2",
  "bytecode": "0x6101e06040523480156200001257600080fd5b5060405162004e3c38038062004e3c83398101604081905262000035916200020c565b60408051808201825260038082526245415360e81b602080840191909152835180850190945260058452640312e332e360dc1b90840152600160805260a052600060c0819052909190829082906200008f90839062000187565b61018052620000a081600162000187565b6101a052815160208084019190912061014052815190820120610160524661010052620001316101405161016051604080517f8b73c3c69bb8fe3d512ecc4cf759cc79239f7b179b0ffacaa9a75d522b39400f60208201529081019290925260608201524660808201523060a082015260009060c00160405160208183030381529060405280519060200120905090565b60e052505030610120526002620001498382620002e3565b5050506001600160a01b03811662000174576040516311a1e69760e01b815260040160405180910390fd5b6001600160a01b03166101c05262000424565b6000602083511015620001a7576200019f83620001c0565b9050620001ba565b81620001b48482620002e3565b5060ff90505b92915050565b600080829050601f81511115620001f7578260405163305a27a960e01b8152600401620001ee9190620003af565b60405180910390fd5b80516200020482620003ff565b179392505050565b6000602082840312156200021f57600080fd5b81516001600160a01b03811681146200023757600080fd5b9392505050565b634e487b7160e01b600052604160045260246000fd5b600181811c908216806200026957607f821691505b6020821081036200028a57634e487b7160e01b600052602260045260246000fd5b50919050565b601f821115620002de57600081815260208120601f850160051c81016020861015620002b95750805b601f850160051c820191505b81811015620002da57828155600101620002c5565b5050505b505050565b81516001600160401b03811115620002ff57620002ff6200023e565b620003178162000310845462000254565b8462000290565b602080601f8311600181146200034f5760008415620003365750858301515b600019600386901b1c1916600185901b178555620002da565b600085815260208120601f198616915b8281101562000380578886015182559484019460019091019084016200035f565b50858210156200039f5787850151600019600388901b60f8161c191681555b5050505050600190811b01905550565b600060208083528351808285015260005b81811015620003de57858101830151858201604001528201620003c0565b506000604082860101526040601f19601f8301168501019250505092915050565b805160208083015191908110156200028a5760001960209190910360031b1b16919050565b60805160a05160c05160e05161010051610120516101405161016051610180516101a0516101c051614983620004b960003960008181610538015281816115c10152611ef901526000612824015260006127f70152600061293101526000612909015260006128640152600061288e015260006128b801526000610c3401526000610c0b01526000610be201526149836000f3fe6080604052600436106101965760003560e01c806384b0196e116100e1578063cf190f341161008a578063e71ff36511610064578063e71ff365146104dc578063ed24911d146104fc578063f10b5cc814610511578063f17325e71461056257600080fd5b8063cf190f3414610446578063d45c443514610466578063e30bb5631461049d57600080fd5b8063a6d4dbc7116100bb578063a6d4dbc7146103a6578063b469318d146103b9578063b83010d31461041357600080fd5b806384b0196e1461033e5780639541152514610366578063a3112a641461037957600080fd5b806344adc90e116101435780634d0030701161011d5780634d003070146102e957806354fd4d501461030957806379f7573a1461031e57600080fd5b806344adc90e146102a357806346926267146102c35780634cb7e9e5146102d657600080fd5b806317d7de7c1161017457806317d7de7c1461022b5780632d0335ab1461024d5780633c0427151461029057600080fd5b80630eabf6601461019b57806312b11a17146101b057806313893f61146101f2575b600080fd5b6101ae6101a93660046137b8565b610575565b005b3480156101bc57600080fd5b507ffeb2925a02bae3dae48d424a0437a2b6ac939aa9230ddc55a1a76f065d9880765b6040519081526020015b60405180910390f35b3480156101fe57600080fd5b5061021261020d3660046137b8565b61070c565b60405167ffffffffffffffff90911681526020016101e9565b34801561023757600080fd5b50610240610751565b6040516101e99190613868565b34801561025957600080fd5b506101df6102683660046138ad565b73ffffffffffffffffffffffffffffffffffffffff1660009081526003602052604090205490565b6101df61029e3660046138ca565b6107e3565b6102b66102b13660046137b8565b6108e6565b6040516101e99190613905565b6101ae6102d1366004613949565b610a67565b6101ae6102e43660046137b8565b610aeb565b3480156102f557600080fd5b50610212610304366004613961565b610bce565b34801561031557600080fd5b50610240610bdb565b34801561032a57600080fd5b506101ae610339366004613961565b610c7e565b34801561034a57600080fd5b50610353610d17565b6040516101e997969594939291906139b5565b6102b66103743660046137b8565b610d79565b34801561038557600080fd5b50610399610394366004613961565b610fec565b6040516101e99190613b25565b6101ae6103b4366004613b38565b6111ae565b3480156103c557600080fd5b506102126103d4366004613b4b565b73ffffffffffffffffffffffffffffffffffffffff919091166000908152600660209081526040808320938352929052205467ffffffffffffffff1690565b34801561041f57600080fd5b507fb5d556f07587ec0f08cf386545cc4362c702a001650c2058002615ee5c9d1e756101df565b34801561045257600080fd5b50610212610461366004613961565b611253565b34801561047257600080fd5b50610212610481366004613961565b60009081526005602052604090205467ffffffffffffffff1690565b3480156104a957600080fd5b506104cc6104b8366004613961565b600090815260046020526040902054151590565b60405190151581526020016101e9565b3480156104e857600080fd5b506102126104f73660046137b8565b611261565b34801561050857600080fd5b506101df611299565b34801561051d57600080fd5b5060405173ffffffffffffffffffffffffffffffffffffffff7f00000000000000000000000000000000000000000000000000000000000000001681526020016101e9565b6101df610570366004613b77565b6112a8565b348160005b81811015610705577fffffffffffffffffffffffffffffffffffffffffffffffffffffffffffffffff8201811460008686848181106105bb576105bb613bb2565b90506020028101906105cd9190613be1565b6105d690613e77565b60208101518051919250908015806105f357508260400151518114155b1561062a576040517f947d5a8400000000000000000000000000000000000000000000000000000000815260040160405180910390fd5b60005b818110156106ce576106c66040518060a001604052808660000151815260200185848151811061065f5761065f613bb2565b602002602001015181526020018660400151848151811061068257610682613bb2565b60200260200101518152602001866060015173ffffffffffffffffffffffffffffffffffffffff168152602001866080015167ffffffffffffffff16815250611366565b60010161062d565b506106e483600001518385606001518a88611578565b6106ee9088613fa1565b9650505050506106fe8160010190565b905061057a565b5050505050565b60004282825b818110156107455761073d3387878481811061073057610730613bb2565b9050602002013585611bc9565b600101610712565b50909150505b92915050565b60606002805461076090613fb4565b80601f016020809104026020016040519081016040528092919081815260200182805461078c90613fb4565b80156107d95780601f106107ae576101008083540402835291602001916107d9565b820191906000526020600020905b8154815290600101906020018083116107bc57829003601f168201915b5050505050905090565b60006107f66107f183614123565b611cc8565b604080516001808252818301909252600091816020015b6040805160c081018252600080825260208083018290529282018190526060808301829052608083015260a082015282527fffffffffffffffffffffffffffffffffffffffffffffffffffffffffffffffff90920191018161080d57905050905061087b602084018461419e565b610884906141d2565b8160008151811061089757610897613bb2565b60209081029190910101526108c08335826108b860c0870160a088016138ad565b346001611e53565b602001516000815181106108d6576108d6613bb2565b6020026020010151915050919050565b60608160008167ffffffffffffffff81111561090457610904613c1f565b60405190808252806020026020018201604052801561093757816020015b60608152602001906001900390816109225790505b509050600034815b84811015610a51577fffffffffffffffffffffffffffffffffffffffffffffffffffffffffffffffff850181143689898481811061097f5761097f613bb2565b905060200281019061099191906141de565b90506109a06020820182614212565b90506000036109db576040517f947d5a8400000000000000000000000000000000000000000000000000000000815260040160405180910390fd5b6000610a0082356109ef6020850185614212565b6109f89161427a565b338887611e53565b8051909150610a0f9086613fa1565b94508060200151878581518110610a2857610a28613bb2565b602002602001018190525080602001515186019550505050610a4a8160010190565b905061093f565b50610a5c8383612586565b979650505050505050565b604080516001808252818301909252600091816020015b6040805180820190915260008082526020820152815260200190600190039081610a7e579050509050610ab9368390038301602084016142ee565b81600081518110610acc57610acc613bb2565b6020908102919091010152610ae682358233346001611578565b505050565b348160005b81811015610705577fffffffffffffffffffffffffffffffffffffffffffffffffffffffffffffffff8201811436868684818110610b3057610b30613bb2565b9050602002810190610b4291906141de565b9050610baf8135610b56602084018461430a565b808060200260200160405190810160405280939291908181526020016000905b82821015610ba257610b93604083028601368190038101906142ee565b81526020019060010190610b76565b5050505050338886611578565b610bb99086613fa1565b94505050610bc78160010190565b9050610af0565b60004261074b8382612670565b6060610c067f0000000000000000000000000000000000000000000000000000000000000000612732565b610c2f7f0000000000000000000000000000000000000000000000000000000000000000612732565b610c587f0000000000000000000000000000000000000000000000000000000000000000612732565b604051602001610c6a93929190614372565b604051602081830303815290604052905090565b33600090815260036020526040902054808211610cc7576040517f756688fe00000000000000000000000000000000000000000000000000000000815260040160405180910390fd5b3360009081526003602090815260409182902084905581518381529081018490527f57b09af877df9068fd60a69d7b21f5576b8b38955812d6ae4ac52942f1e38fb7910160405180910390a15050565b600060608060008060006060610d2b6127f0565b610d3361281d565b604080516000808252602082019092527f0f000000000000000000000000000000000000000000000000000000000000009b939a50919850469750309650945092509050565b60608160008167ffffffffffffffff811115610d9757610d97613c1f565b604051908082528060200260200182016040528015610dca57816020015b6060815260200190600190039081610db55790505b509050600034815b84811015610a51577fffffffffffffffffffffffffffffffffffffffffffffffffffffffffffffffff8501811436898984818110610e1257610e12613bb2565b9050602002810190610e249190613be1565b9050366000610e366020840184614212565b909250905080801580610e575750610e5160408501856143e8565b90508114155b15610e8e576040517f947d5a8400000000000000000000000000000000000000000000000000000000815260040160405180910390fd5b60005b81811015610f6f57610f676040518060a0016040528087600001358152602001868685818110610ec357610ec3613bb2565b9050602002810190610ed5919061419e565b610ede906141d2565b8152602001610ef060408901896143e8565b85818110610f0057610f00613bb2565b905060600201803603810190610f16919061444f565b8152602001610f2b6080890160608a016138ad565b73ffffffffffffffffffffffffffffffffffffffff168152602001610f5660a0890160808a0161446b565b67ffffffffffffffff169052611cc8565b600101610e91565b506000610f988535610f81858761427a565b610f916080890160608a016138ad565b8b8a611e53565b8051909150610fa79089613fa1565b975080602001518a8881518110610fc057610fc0613bb2565b602002602001018190525080602001515189019850505050505050610fe58160010190565b9050610dd2565b604080516101408101825260008082526020820181905291810182905260608082018390526080820183905260a0820183905260c0820183905260e0820183905261010082019290925261012081019190915260008281526004602081815260409283902083516101408101855281548152600182015492810192909252600281015467ffffffffffffffff808216958401959095526801000000000000000081048516606084015270010000000000000000000000000000000090049093166080820152600383015460a08201529082015473ffffffffffffffffffffffffffffffffffffffff90811660c0830152600583015490811660e083015274010000000000000000000000000000000000000000900460ff1615156101008201526006820180549192916101208401919061112590613fb4565b80601f016020809104026020016040519081016040528092919081815260200182805461115190613fb4565b801561119e5780601f106111735761010080835404028352916020019161119e565b820191906000526020600020905b81548152906001019060200180831161118157829003601f168201915b5050505050815250509050919050565b6111c56111c036839003830183614486565b611366565b604080516001808252818301909252600091816020015b60408051808201909152600080825260208201528152602001906001900390816111dc579050509050611217368390038301602084016142ee565b8160008151811061122a5761122a613bb2565b6020908102919091010152610ae682358261124b60e0860160c087016138ad565b346001611578565b60004261074b338483611bc9565b60004282825b818110156107455761129186868381811061128457611284613bb2565b9050602002013584612670565b600101611267565b60006112a361284a565b905090565b604080516001808252818301909252600091829190816020015b6040805160c081018252600080825260208083018290529282018190526060808301829052608083015260a082015282527fffffffffffffffffffffffffffffffffffffffffffffffffffffffffffffffff9092019101816112c2579050509050611330602084018461419e565b611339906141d2565b8160008151811061134c5761134c613bb2565b60209081029190910101526108c083358233346001611e53565b608081015167ffffffffffffffff161580159061139a57504267ffffffffffffffff16816080015167ffffffffffffffff16105b156113d1576040517f1ab7da6b00000000000000000000000000000000000000000000000000000000815260040160405180910390fd5b6020808201516040808401516060850151855184518587015173ffffffffffffffffffffffffffffffffffffffff84166000908152600390985294872080549697949694956114c6957fb5d556f07587ec0f08cf386545cc4362c702a001650c2058002615ee5c9d1e759594939288611449836144f4565b909155506080808c015160408051602081019990995273ffffffffffffffffffffffffffffffffffffffff9097169688019690965260608701949094529285019190915260a084015260c083015267ffffffffffffffff1660e0820152610100015b60405160208183030381529060405280519060200120612982565b905061153c84606001518284602001518560400151866000015160405160200161152893929190928352602083019190915260f81b7fff0000000000000000000000000000000000000000000000000000000000000016604082015260410190565b6040516020818303038152906040526129ca565b611572576040517f8baa579f00000000000000000000000000000000000000000000000000000000815260040160405180910390fd5b50505050565b6040517fa2ea7c6e00000000000000000000000000000000000000000000000000000000815260048101869052600090819073ffffffffffffffffffffffffffffffffffffffff7f0000000000000000000000000000000000000000000000000000000000000000169063a2ea7c6e90602401600060405180830381865afa158015611608573d6000803e3d6000fd5b505050506040513d6000823e601f3d9081017fffffffffffffffffffffffffffffffffffffffffffffffffffffffffffffffe016820160405261164e919081019061452c565b8051909150611689576040517fbf37b20e00000000000000000000000000000000000000000000000000000000815260040160405180910390fd5b855160008167ffffffffffffffff8111156116a6576116a6613c1f565b60405190808252806020026020018201604052801561174557816020015b60408051610140810182526000808252602080830182905292820181905260608083018290526080830182905260a0830182905260c0830182905260e0830182905261010083019190915261012082015282527fffffffffffffffffffffffffffffffffffffffffffffffffffffffffffffffff9092019101816116c45790505b50905060008267ffffffffffffffff81111561176357611763613c1f565b60405190808252806020026020018201604052801561178c578160200160208202803683370190505b50905060005b83811015611bab5760008a82815181106117ae576117ae613bb2565b6020908102919091018101518051600090815260049092526040909120805491925090611807576040517fc5723b5100000000000000000000000000000000000000000000000000000000815260040160405180910390fd5b8c816001015414611844576040517fbf37b20e00000000000000000000000000000000000000000000000000000000815260040160405180910390fd5b600581015473ffffffffffffffffffffffffffffffffffffffff8c811691161461189a576040517f4ca8886700000000000000000000000000000000000000000000000000000000815260040160405180910390fd5b600581015474010000000000000000000000000000000000000000900460ff166118f0576040517f157bd4c300000000000000000000000000000000000000000000000000000000815260040160405180910390fd5b6002810154700100000000000000000000000000000000900467ffffffffffffffff161561194a576040517f905e710700000000000000000000000000000000000000000000000000000000815260040160405180910390fd5b426002820180547fffffffffffffffff0000000000000000ffffffffffffffffffffffffffffffff811670010000000000000000000000000000000067ffffffffffffffff948516810291821793849055604080516101408101825287548152600188015460208201529386169286169290921791830191909152680100000000000000008304841660608301529091049091166080820152600382015460a0820152600482015473ffffffffffffffffffffffffffffffffffffffff90811660c0830152600583015490811660e083015274010000000000000000000000000000000000000000900460ff1615156101008201526006820180548391610120840191611a5690613fb4565b80601f0160208091040260200160405190810160405280929190818152602001828054611a8290613fb4565b8015611acf5780601f10611aa457610100808354040283529160200191611acf565b820191906000526020600020905b815481529060010190602001808311611ab257829003601f168201915b505050505081525050858481518110611aea57611aea613bb2565b60200260200101819052508160200151848481518110611b0c57611b0c613bb2565b6020026020010181815250508c8b73ffffffffffffffffffffffffffffffffffffffff16868581518110611b4257611b42613bb2565b602002602001015160c0015173ffffffffffffffffffffffffffffffffffffffff167ff930a6e2523c9cc298691873087a740550b8fc85a0680830414c148ed927f6158560000151604051611b9991815260200190565b60405180910390a45050600101611792565b50611bbb84838360018b8b612a68565b9a9950505050505050505050565b73ffffffffffffffffffffffffffffffffffffffff83166000908152600660209081526040808320858452918290529091205467ffffffffffffffff1615611c3d576040517fec9d6eeb00000000000000000000000000000000000000000000000000000000815260040160405180910390fd5b60008381526020829052604080822080547fffffffffffffffffffffffffffffffffffffffffffffffff00000000000000001667ffffffffffffffff861690811790915590519091859173ffffffffffffffffffffffffffffffffffffffff8816917f92a1f7a41a7c585a8b09e25b195e225b1d43248daca46b0faf9e0792777a222991a450505050565b608081015167ffffffffffffffff1615801590611cfc57504267ffffffffffffffff16816080015167ffffffffffffffff16105b15611d33576040517f1ab7da6b00000000000000000000000000000000000000000000000000000000815260040160405180910390fd5b6020808201516040808401516060808601518651855186880151868801519488015160808901518051908b012060a08a015173ffffffffffffffffffffffffffffffffffffffff871660009081526003909c52988b2080549a9b989a98996114c6997ffeb2925a02bae3dae48d424a0437a2b6ac939aa9230ddc55a1a76f065d988076999493928c611dc4836144f4565b919050558e608001516040516020016114ab9b9a999897969594939291909a8b5273ffffffffffffffffffffffffffffffffffffffff998a1660208c015260408b019890985295909716606089015267ffffffffffffffff938416608089015291151560a088015260c087015260e0860152610100850193909352610120840152166101408201526101600190565b60408051808201909152600081526060602082015284516040805180820190915260008152606060208201528167ffffffffffffffff811115611e9857611e98613c1f565b604051908082528060200260200182016040528015611ec1578160200160208202803683370190505b5060208201526040517fa2ea7c6e000000000000000000000000000000000000000000000000000000008152600481018990526000907f000000000000000000000000000000000000000000000000000000000000000073ffffffffffffffffffffffffffffffffffffffff169063a2ea7c6e90602401600060405180830381865afa158015611f55573d6000803e3d6000fd5b505050506040513d6000823e601f3d9081017fffffffffffffffffffffffffffffffffffffffffffffffffffffffffffffffe0168201604052611f9b919081019061452c565b8051909150611fd6576040517fbf37b20e00000000000000000000000000000000000000000000000000000000815260040160405180910390fd5b60008367ffffffffffffffff811115611ff157611ff1613c1f565b60405190808252806020026020018201604052801561209057816020015b60408051610140810182526000808252602080830182905292820181905260608083018290526080830182905260a0830182905260c0830182905260e0830182905261010083019190915261012082015282527fffffffffffffffffffffffffffffffffffffffffffffffffffffffffffffffff90920191018161200f5790505b50905060008467ffffffffffffffff8111156120ae576120ae613c1f565b6040519080825280602002602001820160405280156120d7578160200160208202803683370190505b50905060005b858110156125655760008b82815181106120f9576120f9613bb2565b60200260200101519050600067ffffffffffffffff16816020015167ffffffffffffffff161415801561214457504267ffffffffffffffff16816020015167ffffffffffffffff1611155b1561217b576040517f08e8b93700000000000000000000000000000000000000000000000000000000815260040160405180910390fd5b846040015115801561218e575080604001515b156121c5576040517f157bd4c300000000000000000000000000000000000000000000000000000000815260040160405180910390fd5b60006040518061014001604052806000801b81526020018f81526020016121e94290565b67ffffffffffffffff168152602001836020015167ffffffffffffffff168152602001600067ffffffffffffffff16815260200183606001518152602001836000015173ffffffffffffffffffffffffffffffffffffffff1681526020018d73ffffffffffffffffffffffffffffffffffffffff16815260200183604001511515815260200183608001518152509050600080600090505b61228b8382612e59565b600081815260046020526040902054909250156122aa57600101612281565b81835260008281526004602081815260409283902086518155908601516001820155918501516002830180546060880151608089015167ffffffffffffffff908116700100000000000000000000000000000000027fffffffffffffffff0000000000000000ffffffffffffffffffffffffffffffff92821668010000000000000000027fffffffffffffffffffffffffffffffff000000000000000000000000000000009094169190951617919091171691909117905560a0850151600383015560c0850151908201805473ffffffffffffffffffffffffffffffffffffffff9283167fffffffffffffffffffffffff000000000000000000000000000000000000000090911617905560e0850151600583018054610100880151151574010000000000000000000000000000000000000000027fffffffffffffffffffffff000000000000000000000000000000000000000000909116929093169190911791909117905561012084015184919060068201906124299082614652565b505050606084015115612480576060840151600090815260046020526040902054612480576040517fc5723b5100000000000000000000000000000000000000000000000000000000815260040160405180910390fd5b8287868151811061249357612493613bb2565b60200260200101819052508360a001518686815181106124b5576124b5613bb2565b60200260200101818152505081896020015186815181106124d8576124d8613bb2565b6020026020010181815250508f8e73ffffffffffffffffffffffffffffffffffffffff16856000015173ffffffffffffffffffffffffffffffffffffffff167f8bf46bf4cfd674fa735a3d63ec1c9ad4153f033c290341f3a588b75685141b358560405161254891815260200190565b60405180910390a45050505061255e8160010190565b90506120dd565b5061257583838360008c8c612a68565b845250919998505050505050505050565b606060008267ffffffffffffffff8111156125a3576125a3613c1f565b6040519080825280602002602001820160405280156125cc578160200160208202803683370190505b508451909150600090815b818110156126655760008782815181106125f3576125f3613bb2565b6020026020010151905060008151905060005b818110156126515782818151811061262057612620613bb2565b602002602001015187878151811061263a5761263a613bb2565b602090810291909101015260019586019501612606565b50505061265e8160010190565b90506125d7565b509195945050505050565b60008281526005602052604090205467ffffffffffffffff16156126c0576040517f2e26794600000000000000000000000000000000000000000000000000000000815260040160405180910390fd5b60008281526005602052604080822080547fffffffffffffffffffffffffffffffffffffffffffffffff00000000000000001667ffffffffffffffff85169081179091559051909184917f5aafceeb1c7ad58e4a84898bdee37c02c0fc46e7d24e6b60e8209449f183459f9190a35050565b6060600061273f83612eb8565b600101905060008167ffffffffffffffff81111561275f5761275f613c1f565b6040519080825280601f01601f191660200182016040528015612789576020820181803683370190505b5090508181016020015b7fffffffffffffffffffffffffffffffffffffffffffffffffffffffffffffffff017f3031323334353637383961626364656600000000000000000000000000000000600a86061a8153600a850494508461279357509392505050565b60606112a37f00000000000000000000000000000000000000000000000000000000000000006000612f9a565b60606112a37f00000000000000000000000000000000000000000000000000000000000000006001612f9a565b60003073ffffffffffffffffffffffffffffffffffffffff7f0000000000000000000000000000000000000000000000000000000000000000161480156128b057507f000000000000000000000000000000000000000000000000000000000000000046145b156128da57507f000000000000000000000000000000000000000000000000000000000000000090565b6112a3604080517f8b73c3c69bb8fe3d512ecc4cf759cc79239f7b179b0ffacaa9a75d522b39400f60208201527f0000000000000000000000000000000000000000000000000000000000000000918101919091527f000000000000000000000000000000000000000000000000000000000000000060608201524660808201523060a082015260009060c00160405160208183030381529060405280519060200120905090565b600061074b61298f61284a565b836040517f19010000000000000000000000000000000000000000000000000000000000008152600281019290925260228201526042902090565b60008373ffffffffffffffffffffffffffffffffffffffff163b600003612a53576000806129f88585613045565b5090925090506000816003811115612a1257612a1261476c565b148015612a4a57508573ffffffffffffffffffffffffffffffffffffffff168273ffffffffffffffffffffffffffffffffffffffff16145b92505050612a61565b612a5e848484613092565b90505b9392505050565b84516000906001819003612ac057612ab88888600081518110612a8d57612a8d613bb2565b602002602001015188600081518110612aa857612aa8613bb2565b60200260200101518888886131df565b915050612e4f565b602088015173ffffffffffffffffffffffffffffffffffffffff8116612b615760005b82811015612b4657878181518110612afd57612afd613bb2565b6020026020010151600014612b3e576040517f1574f9f300000000000000000000000000000000000000000000000000000000815260040160405180910390fd5b600101612ae3565b508315612b5657612b56856134fe565b600092505050612e4f565b6000808273ffffffffffffffffffffffffffffffffffffffff1663ce46e0466040518163ffffffff1660e01b8152600401602060405180830381865afa158015612baf573d6000803e3d6000fd5b505050506040513d601f19601f82011682018060405250810190612bd3919061479b565b905060005b84811015612c905760008a8281518110612bf457612bf4613bb2565b6020026020010151905080600003612c0c5750612c88565b82612c43576040517f1574f9f300000000000000000000000000000000000000000000000000000000815260040160405180910390fd5b88811115612c7d576040517f1101129400000000000000000000000000000000000000000000000000000000815260040160405180910390fd5b978890039792909201915b600101612bd8565b508715612d6b576040517f88e5b2d900000000000000000000000000000000000000000000000000000000815273ffffffffffffffffffffffffffffffffffffffff8416906388e5b2d9908490612ced908e908e906004016147b8565b60206040518083038185885af1158015612d0b573d6000803e3d6000fd5b50505050506040513d601f19601f82011682018060405250810190612d30919061479b565b612d66576040517fbf2f3a8b00000000000000000000000000000000000000000000000000000000815260040160405180910390fd5b612e3a565b6040517f91db0b7e00000000000000000000000000000000000000000000000000000000815273ffffffffffffffffffffffffffffffffffffffff8416906391db0b7e908490612dc1908e908e906004016147b8565b60206040518083038185885af1158015612ddf573d6000803e3d6000fd5b50505050506040513d601f19601f82011682018060405250810190612e04919061479b565b612e3a576040517fe8bee83900000000000000000000000000000000000000000000000000000000815260040160405180910390fd5b8515612e4957612e49876134fe565b50925050505b9695505050505050565b60208083015160c084015160e0850151604080870151606088015161010089015160a08a01516101208b01519451600099612e9a99989796918c910161484c565b60405160208183030381529060405280519060200120905092915050565b6000807a184f03e93ff9f4daa797ed6e38ed64bf6a1f0100000000000000008310612f01577a184f03e93ff9f4daa797ed6e38ed64bf6a1f010000000000000000830492506040015b6d04ee2d6d415b85acef81000000008310612f2d576d04ee2d6d415b85acef8100000000830492506020015b662386f26fc100008310612f4b57662386f26fc10000830492506010015b6305f5e1008310612f63576305f5e100830492506008015b6127108310612f7757612710830492506004015b60648310612f89576064830492506002015b600a831061074b5760010192915050565b606060ff8314612fb457612fad83613511565b905061074b565b818054612fc090613fb4565b80601f0160208091040260200160405190810160405280929190818152602001828054612fec90613fb4565b80156130395780601f1061300e57610100808354040283529160200191613039565b820191906000526020600020905b81548152906001019060200180831161301c57829003601f168201915b5050505050905061074b565b6000806000835160410361307f5760208401516040850151606086015160001a61307188828585613550565b95509550955050505061308b565b50508151600091506002905b9250925092565b60008060008573ffffffffffffffffffffffffffffffffffffffff1685856040516024016130c192919061492a565b604080517fffffffffffffffffffffffffffffffffffffffffffffffffffffffffffffffe08184030181529181526020820180517bffffffffffffffffffffffffffffffffffffffffffffffffffffffff167f1626ba7e0000000000000000000000000000000000000000000000000000000017905251613142919061494b565b600060405180830381855afa9150503d806000811461317d576040519150601f19603f3d011682016040523d82523d6000602084013e613182565b606091505b509150915081801561319657506020815110155b8015612e4f575080517f1626ba7e00000000000000000000000000000000000000000000000000000000906131d4908301602090810190840161495d565b149695505050505050565b602086015160009073ffffffffffffffffffffffffffffffffffffffff811661325357851561323a576040517f1574f9f300000000000000000000000000000000000000000000000000000000815260040160405180910390fd5b821561324957613249846134fe565b6000915050612e4f565b851561333e578073ffffffffffffffffffffffffffffffffffffffff1663ce46e0466040518163ffffffff1660e01b8152600401602060405180830381865afa1580156132a4573d6000803e3d6000fd5b505050506040513d601f19601f820116820180604052508101906132c8919061479b565b6132fe576040517f1574f9f300000000000000000000000000000000000000000000000000000000815260040160405180910390fd5b83861115613338576040517f1101129400000000000000000000000000000000000000000000000000000000815260040160405180910390fd5b85840393505b8415613416576040517fe49617e100000000000000000000000000000000000000000000000000000000815273ffffffffffffffffffffffffffffffffffffffff82169063e49617e1908890613398908b90600401613b25565b60206040518083038185885af11580156133b6573d6000803e3d6000fd5b50505050506040513d601f19601f820116820180604052508101906133db919061479b565b613411576040517fccf3bb2700000000000000000000000000000000000000000000000000000000815260040160405180910390fd5b6134e3565b6040517fe60c350500000000000000000000000000000000000000000000000000000000815273ffffffffffffffffffffffffffffffffffffffff82169063e60c350590889061346a908b90600401613b25565b60206040518083038185885af1158015613488573d6000803e3d6000fd5b50505050506040513d601f19601f820116820180604052508101906134ad919061479b565b6134e3576040517fbd8ba84d00000000000000000000000000000000000000000000000000000000815260040160405180910390fd5b82156134f2576134f2846134fe565b50939695505050505050565b801561350e5761350e338261364a565b50565b6060600061351e8361372b565b604080516020808252818301909252919250600091906020820181803683375050509182525060208101929092525090565b600080807f7fffffffffffffffffffffffffffffff5d576e7357a4501ddfe92f46681b20a084111561358b5750600091506003905082613640565b604080516000808252602082018084528a905260ff891692820192909252606081018790526080810186905260019060a0016020604051602081039080840390855afa1580156135df573d6000803e3d6000fd5b50506040517fffffffffffffffffffffffffffffffffffffffffffffffffffffffffffffffe0015191505073ffffffffffffffffffffffffffffffffffffffff811661363657506000925060019150829050613640565b9250600091508190505b9450945094915050565b80471015613691576040517fcf4791810000000000000000000000000000000000000000000000000000000081524760048201526024810182905260440160405180910390fd5b60008273ffffffffffffffffffffffffffffffffffffffff168260405160006040518083038185875af1925050503d80600081146136eb576040519150601f19603f3d011682016040523d82523d6000602084013e6136f0565b606091505b5050905080610ae6576040517fd6bda27500000000000000000000000000000000000000000000000000000000815260040160405180910390fd5b600060ff8216601f81111561074b576040517fb3512b0c00000000000000000000000000000000000000000000000000000000815260040160405180910390fd5b60008083601f84011261377e57600080fd5b50813567ffffffffffffffff81111561379657600080fd5b6020830191508360208260051b85010111156137b157600080fd5b9250929050565b600080602083850312156137cb57600080fd5b823567ffffffffffffffff8111156137e257600080fd5b6137ee8582860161376c565b90969095509350505050565b60005b838110156138155781810151838201526020016137fd565b50506000910152565b600081518084526138368160208601602086016137fa565b601f017fffffffffffffffffffffffffffffffffffffffffffffffffffffffffffffffe0169290920160200192915050565b602081526000612a61602083018461381e565b73ffffffffffffffffffffffffffffffffffffffff8116811461350e57600080fd5b80356138a88161387b565b919050565b6000602082840312156138bf57600080fd5b8135612a618161387b565b6000602082840312156138dc57600080fd5b813567ffffffffffffffff8111156138f357600080fd5b820160e08185031215612a6157600080fd5b6020808252825182820181905260009190848201906040850190845b8181101561393d57835183529284019291840191600101613921565b50909695505050505050565b60006060828403121561395b57600080fd5b50919050565b60006020828403121561397357600080fd5b5035919050565b600081518084526020808501945080840160005b838110156139aa5781518752958201959082019060010161398e565b509495945050505050565b7fff000000000000000000000000000000000000000000000000000000000000008816815260e0602082015260006139f060e083018961381e565b8281036040840152613a02818961381e565b905086606084015273ffffffffffffffffffffffffffffffffffffffff861660808401528460a084015282810360c0840152611bbb818561397a565b600061014082518452602083015160208501526040830151613a6c604086018267ffffffffffffffff169052565b506060830151613a88606086018267ffffffffffffffff169052565b506080830151613aa4608086018267ffffffffffffffff169052565b5060a083015160a085015260c0830151613ad660c086018273ffffffffffffffffffffffffffffffffffffffff169052565b5060e0830151613afe60e086018273ffffffffffffffffffffffffffffffffffffffff169052565b506101008381015115159085015261012080840151818601839052612e4f8387018261381e565b602081526000612a616020830184613a3e565b6000610100828403121561395b57600080fd5b60008060408385031215613b5e57600080fd5b8235613b698161387b565b946020939093013593505050565b600060208284031215613b8957600080fd5b813567ffffffffffffffff811115613ba057600080fd5b820160408185031215612a6157600080fd5b7f4e487b7100000000000000000000000000000000000000000000000000000000600052603260045260246000fd5b600082357fffffffffffffffffffffffffffffffffffffffffffffffffffffffffffffff61833603018112613c1557600080fd5b9190910192915050565b7f4e487b7100000000000000000000000000000000000000000000000000000000600052604160045260246000fd5b60405160a0810167ffffffffffffffff81118282101715613c7157613c71613c1f565b60405290565b60405160c0810167ffffffffffffffff81118282101715613c7157613c71613c1f565b6040516080810167ffffffffffffffff81118282101715613c7157613c71613c1f565b604051601f82017fffffffffffffffffffffffffffffffffffffffffffffffffffffffffffffffe016810167ffffffffffffffff81118282101715613d0457613d04613c1f565b604052919050565b600067ffffffffffffffff821115613d2657613d26613c1f565b5060051b60200190565b600060408284031215613d4257600080fd5b6040516040810181811067ffffffffffffffff82111715613d6557613d65613c1f565b604052823581526020928301359281019290925250919050565b600060608284031215613d9157600080fd5b6040516060810181811067ffffffffffffffff82111715613db457613db4613c1f565b604052905080823560ff81168114613dcb57600080fd5b8082525060208301356020820152604083013560408201525092915050565b600082601f830112613dfb57600080fd5b81356020613e10613e0b83613d0c565b613cbd565b82815260609283028501820192828201919087851115613e2f57600080fd5b8387015b85811015613e5257613e458982613d7f565b8452928401928101613e33565b5090979650505050505050565b803567ffffffffffffffff811681146138a857600080fd5b600060a08236031215613e8957600080fd5b613e91613c4e565b8235815260208084013567ffffffffffffffff80821115613eb157600080fd5b9085019036601f830112613ec457600080fd5b8135613ed2613e0b82613d0c565b81815260069190911b83018401908481019036831115613ef157600080fd5b938501935b82851015613f1a57613f083686613d30565b82528582019150604085019450613ef6565b80868801525050506040860135925080831115613f3657600080fd5b5050613f4436828601613dea565b604083015250613f566060840161389d565b6060820152613f6760808401613e5f565b608082015292915050565b7f4e487b7100000000000000000000000000000000000000000000000000000000600052601160045260246000fd5b8181038181111561074b5761074b613f72565b600181811c90821680613fc857607f821691505b60208210810361395b577f4e487b7100000000000000000000000000000000000000000000000000000000600052602260045260246000fd5b801515811461350e57600080fd5b600067ffffffffffffffff82111561402957614029613c1f565b50601f017fffffffffffffffffffffffffffffffffffffffffffffffffffffffffffffffe01660200190565b600060c0828403121561406757600080fd5b61406f613c77565b9050813561407c8161387b565b8152602061408b838201613e5f565b81830152604083013561409d81614001565b604083015260608381013590830152608083013567ffffffffffffffff8111156140c657600080fd5b8301601f810185136140d757600080fd5b80356140e5613e0b8261400f565b81815286848385010111156140f957600080fd5b818484018583013760008483830101528060808601525050505060a082013560a082015292915050565b600060e0823603121561413557600080fd5b61413d613c4e565b82358152602083013567ffffffffffffffff81111561415b57600080fd5b61416736828601614055565b60208301525061417a3660408501613d7f565b604082015260a083013561418d8161387b565b6060820152613f6760c08401613e5f565b600082357fffffffffffffffffffffffffffffffffffffffffffffffffffffffffffffff41833603018112613c1557600080fd5b600061074b3683614055565b600082357fffffffffffffffffffffffffffffffffffffffffffffffffffffffffffffffc1833603018112613c1557600080fd5b60008083357fffffffffffffffffffffffffffffffffffffffffffffffffffffffffffffffe184360301811261424757600080fd5b83018035915067ffffffffffffffff82111561426257600080fd5b6020019150600581901b36038213156137b157600080fd5b6000614288613e0b84613d0c565b80848252602080830192508560051b8501368111156142a657600080fd5b855b818110156142e257803567ffffffffffffffff8111156142c85760008081fd5b6142d436828a01614055565b8652509382019382016142a8565b50919695505050505050565b60006040828403121561430057600080fd5b612a618383613d30565b60008083357fffffffffffffffffffffffffffffffffffffffffffffffffffffffffffffffe184360301811261433f57600080fd5b83018035915067ffffffffffffffff82111561435a57600080fd5b6020019150600681901b36038213156137b157600080fd5b600084516143848184602089016137fa565b80830190507f2e0000000000000000000000000000000000000000000000000000000000000080825285516143c0816001850160208a016137fa565b600192019182015283516143db8160028401602088016137fa565b0160020195945050505050565b60008083357fffffffffffffffffffffffffffffffffffffffffffffffffffffffffffffffe184360301811261441d57600080fd5b83018035915067ffffffffffffffff82111561443857600080fd5b60200191506060810236038213156137b157600080fd5b60006060828403121561446157600080fd5b612a618383613d7f565b60006020828403121561447d57600080fd5b612a6182613e5f565b6000610100828403121561449957600080fd5b6144a1613c4e565b823581526144b28460208501613d30565b60208201526144c48460608501613d7f565b604082015260c08301356144d78161387b565b60608201526144e860e08401613e5f565b60808201529392505050565b60007fffffffffffffffffffffffffffffffffffffffffffffffffffffffffffffffff820361452557614525613f72565b5060010190565b6000602080838503121561453f57600080fd5b825167ffffffffffffffff8082111561455757600080fd5b908401906080828703121561456b57600080fd5b614573613c9a565b82518152838301516145848161387b565b81850152604083015161459681614001565b60408201526060830151828111156145ad57600080fd5b80840193505086601f8401126145c257600080fd5b825191506145d2613e0b8361400f565b82815287858486010111156145e657600080fd5b6145f5838683018787016137fa565b60608201529695505050505050565b601f821115610ae657600081815260208120601f850160051c8101602086101561462b5750805b601f850160051c820191505b8181101561464a57828155600101614637565b505050505050565b815167ffffffffffffffff81111561466c5761466c613c1f565b6146808161467a8454613fb4565b84614604565b602080601f8311600181146146d3576000841561469d5750858301515b7fffffffffffffffffffffffffffffffffffffffffffffffffffffffffffffffff600386901b1c1916600185901b17855561464a565b6000858152602081207fffffffffffffffffffffffffffffffffffffffffffffffffffffffffffffffe08616915b8281101561472057888601518255948401946001909101908401614701565b508582101561475c57878501517fffffffffffffffffffffffffffffffffffffffffffffffffffffffffffffffff600388901b60f8161c191681555b5050505050600190811b01905550565b7f4e487b7100000000000000000000000000000000000000000000000000000000600052602160045260246000fd5b6000602082840312156147ad57600080fd5b8151612a6181614001565b6000604082016040835280855180835260608501915060608160051b8601019250602080880160005b8381101561482d577fffffffffffffffffffffffffffffffffffffffffffffffffffffffffffffffa088870301855261481b868351613a3e565b955093820193908201906001016147e1565b505085840381870152505050614843818561397a565b95945050505050565b89815260007fffffffffffffffffffffffffffffffffffffffff000000000000000000000000808b60601b166020840152808a60601b166034840152507fffffffffffffffff000000000000000000000000000000000000000000000000808960c01b166048840152808860c01b1660508401525085151560f81b605883015284605983015283516148e58160798501602088016137fa565b80830190507fffffffff000000000000000000000000000000000000000000000000000000008460e01b166079820152607d81019150509a9950505050505050505050565b828152604060208201526000614943604083018461381e565b949350505050565b60008251613c158184602087016137fa565b60006020828403121561496f57600080fd5b505191905056fea164736f6c6343000814000a",
  "devdoc": {
    "errors": {
      "FailedCall()": [
        {
          "details": "A call to an address target failed. The target may have reverted."
        }
      ],
      "InsufficientBalance(uint256,uint256)": [
        {
          "details": "The ETH balance of the account is not enough to perform the operation."
        }
      ]
    },
    "events": {
      "Attested(address,address,bytes32,bytes32)": {
        "params": {
          "attester": "The attesting account.",
          "recipient": "The recipient of the attestation.",
          "schemaUID": "The UID of the schema.",
          "uid": "The UID the revoked attestation."
        }
      },
      "EIP712DomainChanged()": {
        "details": "MAY be emitted to signal that the domain could have changed."
      },
      "NonceIncreased(uint256,uint256)": {
        "params": {
          "newNonce": "The new value.",
          "oldNonce": "The previous nonce."
        }
      },
      "Revoked(address,address,bytes32,bytes32)": {
        "params": {
          "attester": "The attesting account.",
          "recipient": "The recipient of the attestation.",
          "schemaUID": "The UID of the schema.",
          "uid": "The UID the revoked attestation."
        }
      },
      "RevokedOffchain(address,bytes32,uint64)": {
        "params": {
          "data": "The data.",
          "revoker": "The address of the revoker.",
          "timestamp": "The timestamp."
        }
      },
      "Timestamped(bytes32,uint64)": {
        "params": {
          "data": "The data.",
          "timestamp": "The timestamp."
        }
      }
    },
    "kind": "dev",
    "methods": {
      "attest((bytes32,(address,uint64,bool,bytes32,bytes,uint256)))": {
        "params": {
          "request": "The arguments of the attestation request."
        },
        "returns": {
          "_0": "The UID of the new attestation. Example:     attest({         schema: \"0facc36681cbe2456019c1b0d1e7bedd6d1d40f6f324bf3dd3a4cef2999200a0\",         data: {             recipient: \"0xdEADBeAFdeAdbEafdeadbeafDeAdbEAFdeadbeaf\",             expirationTime: 0,             revocable: true,             refUID: \"0x0000000000000000000000000000000000000000000000000000000000000000\",             data: \"0xF00D\",             value: 0         }     })"
        }
      },
      "attestByDelegation((bytes32,(address,uint64,bool,bytes32,bytes,uint256),(uint8,bytes32,bytes32),address,uint64))": {
        "params": {
          "delegatedRequest": "The arguments of the delegated attestation request."
        },
        "returns": {
          "_0": "The UID of the new attestation. Example:     attestByDelegation({         schema: '0x8e72f5bc0a8d4be6aa98360baa889040c50a0e51f32dbf0baa5199bd93472ebc',         data: {             recipient: '0xf39Fd6e51aad88F6F4ce6aB8827279cffFb92266',             expirationTime: 1673891048,             revocable: true,             refUID: '0x0000000000000000000000000000000000000000000000000000000000000000',             data: '0x1234',             value: 0         },         signature: {             v: 28,             r: '0x148c...b25b',             s: '0x5a72...be22'         },         attester: '0xc5E8740aD971409492b1A63Db8d83025e0Fc427e',         deadline: 1673891048     })"
        }
      },
      "constructor": {
        "details": "Creates a new EAS instance.",
        "params": {
          "registry": "The address of the global schema registry."
        }
      },
      "eip712Domain()": {
        "details": "See {IERC-5267}."
      },
      "getAttestTypeHash()": {
        "returns": {
          "_0": "The EIP712 type hash for the attest function."
        }
      },
      "getAttestation(bytes32)": {
        "params": {
          "uid": "The UID of the attestation to retrieve."
        },
        "returns": {
          "_0": "The attestation data members."
        }
      },
      "getDomainSeparator()": {
        "returns": {
          "_0": "The domain separator used in the encoding of the signatures for attest, and revoke."
        }
      },
      "getName()": {
        "returns": {
          "_0": "The EIP712 name."
        }
      },
      "getNonce(address)": {
        "params": {
          "account": "The requested account."
        },
        "returns": {
          "_0": "The current nonce."
        }
      },
      "getRevokeOffchain(address,bytes32)": {
        "params": {
          "data": "The data to query."
        },
        "returns": {
          "_0": "The timestamp the data was timestamped with."
        }
      },
      "getRevokeTypeHash()": {
        "returns": {
          "_0": "The EIP712 type hash for the revoke function."
        }
      },
      "getSchemaRegistry()": {
        "returns": {
          "_0": "The address of the global schema registry."
        }
      },
      "getTimestamp(bytes32)": {
        "params": {
          "data": "The data to query."
        },
        "returns": {
          "_0": "The timestamp the data was timestamped with."
        }
      },
      "increaseNonce(uint256)": {
        "params": {
          "newNonce": "The (higher) new value."
        }
      },
      "isAttestationValid(bytes32)": {
        "params": {
          "uid": "The UID of the attestation to retrieve."
        },
        "returns": {
          "_0": "Whether an attestation exists."
        }
      },
      "multiAttest((bytes32,(address,uint64,bool,bytes32,bytes,uint256)[])[])": {
        "params": {
          "multiRequests": "The arguments of the multi attestation requests. The requests should be grouped by distinct     schema ids to benefit from the best batching optimization."
        },
        "returns": {
          "_0": "The UIDs of the new attestations. Example:     multiAttest([{         schema: '0x33e9094830a5cba5554d1954310e4fbed2ef5f859ec1404619adea4207f391fd',         data: [{             recipient: '0xdEADBeAFdeAdbEafdeadbeafDeAdbEAFdeadbeaf',             expirationTime: 1673891048,             revocable: true,             refUID: '0x0000000000000000000000000000000000000000000000000000000000000000',             data: '0x1234',             value: 1000         },         {             recipient: '0xf39Fd6e51aad88F6F4ce6aB8827279cffFb92266',             expirationTime: 0,             revocable: false,             refUID: '0x480df4a039efc31b11bfdf491b383ca138b6bde160988222a2a3509c02cee174',             data: '0x00',             value: 0         }],     },     {         schema: '0x5ac273ce41e3c8bfa383efe7c03e54c5f0bff29c9f11ef6ffa930fc84ca32425',         data: [{             recipient: '0xdEADBeAFdeAdbEafdeadbeafDeAdbEAFdeadbeaf',             expirationTime: 0,             revocable: true,             refUID: '0x75bf2ed8dca25a8190c50c52db136664de25b2449535839008ccfdab469b214f',             data: '0x12345678',             value: 0         },     }])"
        }
      },
      "multiAttestByDelegation((bytes32,(address,uint64,bool,bytes32,bytes,uint256)[],(uint8,bytes32,bytes32)[],address,uint64)[])": {
        "params": {
          "multiDelegatedRequests": "The arguments of the delegated multi attestation requests. The requests should be     grouped by distinct schema ids to benefit from the best batching optimization."
        },
        "returns": {
          "_0": "The UIDs of the new attestations. Example:     multiAttestByDelegation([{         schema: '0x8e72f5bc0a8d4be6aa98360baa889040c50a0e51f32dbf0baa5199bd93472ebc',         data: [{             recipient: '0xf39Fd6e51aad88F6F4ce6aB8827279cffFb92266',             expirationTime: 1673891048,             revocable: true,             refUID: '0x0000000000000000000000000000000000000000000000000000000000000000',             data: '0x1234',             value: 0         },         {             recipient: '0xdEADBeAFdeAdbEafdeadbeafDeAdbEAFdeadbeaf',             expirationTime: 0,             revocable: false,             refUID: '0x0000000000000000000000000000000000000000000000000000000000000000',             data: '0x00',             value: 0         }],         signatures: [{             v: 28,             r: '0x148c...b25b',             s: '0x5a72...be22'         },         {             v: 28,             r: '0x487s...67bb',             s: '0x12ad...2366'         }],         attester: '0x1D86495b2A7B524D747d2839b3C645Bed32e8CF4',         deadline: 1673891048     }])"
        }
      },
      "multiRevoke((bytes32,(bytes32,uint256)[])[])": {
        "params": {
          "multiRequests": "The arguments of the multi revocation requests. The requests should be grouped by distinct     schema ids to benefit from the best batching optimization. Example:     multiRevoke([{         schema: '0x8e72f5bc0a8d4be6aa98360baa889040c50a0e51f32dbf0baa5199bd93472ebc',         data: [{             uid: '0x211296a1ca0d7f9f2cfebf0daaa575bea9b20e968d81aef4e743d699c6ac4b25',             value: 1000         },         {             uid: '0xe160ac1bd3606a287b4d53d5d1d6da5895f65b4b4bab6d93aaf5046e48167ade',             value: 0         }],     },     {         schema: '0x5ac273ce41e3c8bfa383efe7c03e54c5f0bff29c9f11ef6ffa930fc84ca32425',         data: [{             uid: '0x053d42abce1fd7c8fcddfae21845ad34dae287b2c326220b03ba241bc5a8f019',             value: 0         },     }])"
        }
      },
      "multiRevokeByDelegation((bytes32,(bytes32,uint256)[],(uint8,bytes32,bytes32)[],address,uint64)[])": {
        "params": {
          "multiDelegatedRequests": "The arguments of the delegated multi revocation attestation requests. The requests     should be grouped by distinct schema ids to benefit from the best batching optimization. Example:     multiRevokeByDelegation([{         schema: '0x8e72f5bc0a8d4be6aa98360baa889040c50a0e51f32dbf0baa5199bd93472ebc',         data: [{             uid: '0x211296a1ca0d7f9f2cfebf0daaa575bea9b20e968d81aef4e743d699c6ac4b25',             value: 1000         },         {             uid: '0xe160ac1bd3606a287b4d53d5d1d6da5895f65b4b4bab6d93aaf5046e48167ade',             value: 0         }],         signatures: [{             v: 28,             r: '0x148c...b25b',             s: '0x5a72...be22'         },         {             v: 28,             r: '0x487s...67bb',             s: '0x12ad...2366'         }],         revoker: '0x244934dd3e31bE2c81f84ECf0b3E6329F5381992',         deadline: 1673891048     }])"
        }
      },
      "multiRevokeOffchain(bytes32[])": {
        "params": {
          "data": "The data to timestamp."
        },
        "returns": {
          "_0": "The timestamp the data was revoked with."
        }
      },
      "multiTimestamp(bytes32[])": {
        "params": {
          "data": "The data to timestamp."
        },
        "returns": {
          "_0": "The timestamp the data was timestamped with."
        }
      },
      "revoke((bytes32,(bytes32,uint256)))": {
        "params": {
          "request": "The arguments of the revocation request. Example:     revoke({         schema: '0x8e72f5bc0a8d4be6aa98360baa889040c50a0e51f32dbf0baa5199bd93472ebc',         data: {             uid: '0x101032e487642ee04ee17049f99a70590c735b8614079fc9275f9dd57c00966d',             value: 0         }     })"
        }
      },
      "revokeByDelegation((bytes32,(bytes32,uint256),(uint8,bytes32,bytes32),address,uint64))": {
        "params": {
          "delegatedRequest": "The arguments of the delegated revocation request. Example:     revokeByDelegation({         schema: '0x8e72f5bc0a8d4be6aa98360baa889040c50a0e51f32dbf0baa5199bd93472ebc',         data: {             uid: '0xcbbc12102578c642a0f7b34fe7111e41afa25683b6cd7b5a14caf90fa14d24ba',             value: 0         },         signature: {             v: 27,             r: '0xb593...7142',             s: '0x0f5b...2cce'         },         revoker: '0x244934dd3e31bE2c81f84ECf0b3E6329F5381992',         deadline: 1673891048     })"
        }
      },
      "revokeOffchain(bytes32)": {
        "params": {
          "data": "The data to timestamp."
        },
        "returns": {
          "_0": "The timestamp the data was revoked with."
        }
      },
      "timestamp(bytes32)": {
        "params": {
          "data": "The data to timestamp."
        },
        "returns": {
          "_0": "The timestamp the data was timestamped with."
        }
      },
      "version()": {
        "returns": {
          "_0": "Semver contract version as a string."
        }
      }
    },
    "title": "EAS",
    "version": 1
  },
  "userdoc": {
    "events": {
      "Attested(address,address,bytes32,bytes32)": {
        "notice": "Emitted when an attestation has been made."
      },
      "NonceIncreased(uint256,uint256)": {
        "notice": "Emitted when users invalidate nonces by increasing their nonces to (higher) new values."
      },
      "Revoked(address,address,bytes32,bytes32)": {
        "notice": "Emitted when an attestation has been revoked."
      },
      "RevokedOffchain(address,bytes32,uint64)": {
        "notice": "Emitted when a data has been revoked."
      },
      "Timestamped(bytes32,uint64)": {
        "notice": "Emitted when a data has been timestamped."
      }
    },
    "kind": "user",
    "methods": {
      "attest((bytes32,(address,uint64,bool,bytes32,bytes,uint256)))": {
        "notice": "Attests to a specific schema."
      },
      "attestByDelegation((bytes32,(address,uint64,bool,bytes32,bytes,uint256),(uint8,bytes32,bytes32),address,uint64))": {
        "notice": "Attests to a specific schema via the provided ECDSA signature."
      },
      "getAttestTypeHash()": {
        "notice": "Returns the EIP712 type hash for the attest function."
      },
      "getAttestation(bytes32)": {
        "notice": "Returns an existing attestation by UID."
      },
      "getDomainSeparator()": {
        "notice": "Returns the domain separator used in the encoding of the signatures for attest, and revoke."
      },
      "getName()": {
        "notice": "Returns the EIP712 name."
      },
      "getNonce(address)": {
        "notice": "Returns the current nonce per-account."
      },
      "getRevokeOffchain(address,bytes32)": {
        "notice": "Returns the timestamp that the specified data was timestamped with."
      },
      "getRevokeTypeHash()": {
        "notice": "Returns the EIP712 type hash for the revoke function."
      },
      "getSchemaRegistry()": {
        "notice": "Returns the address of the global schema registry."
      },
      "getTimestamp(bytes32)": {
        "notice": "Returns the timestamp that the specified data was timestamped with."
      },
      "increaseNonce(uint256)": {
        "notice": "Provides users an option to invalidate nonces by increasing their nonces to (higher) new values."
      },
      "isAttestationValid(bytes32)": {
        "notice": "Checks whether an attestation exists."
      },
      "multiAttest((bytes32,(address,uint64,bool,bytes32,bytes,uint256)[])[])": {
        "notice": "Attests to multiple schemas."
      },
      "multiAttestByDelegation((bytes32,(address,uint64,bool,bytes32,bytes,uint256)[],(uint8,bytes32,bytes32)[],address,uint64)[])": {
        "notice": "Attests to multiple schemas using via provided ECDSA signatures."
      },
      "multiRevoke((bytes32,(bytes32,uint256)[])[])": {
        "notice": "Revokes existing attestations to multiple schemas."
      },
      "multiRevokeByDelegation((bytes32,(bytes32,uint256)[],(uint8,bytes32,bytes32)[],address,uint64)[])": {
        "notice": "Revokes existing attestations to multiple schemas via provided ECDSA signatures."
      },
      "multiRevokeOffchain(bytes32[])": {
        "notice": "Revokes the specified multiple bytes32 data."
      },
      "multiTimestamp(bytes32[])": {
        "notice": "Timestamps the specified multiple bytes32 data."
      },
      "revoke((bytes32,(bytes32,uint256)))": {
        "notice": "Revokes an existing attestation to a specific schema."
      },
      "revokeByDelegation((bytes32,(bytes32,uint256),(uint8,bytes32,bytes32),address,uint64))": {
        "notice": "Revokes an existing attestation to a specific schema via the provided ECDSA signature."
      },
      "revokeOffchain(bytes32)": {
        "notice": "Revokes the specified bytes32 data."
      },
      "timestamp(bytes32)": {
        "notice": "Timestamps the specified bytes32 data."
      },
      "version()": {
        "notice": "Returns the full semver contract version."
      }
    },
    "notice": "The Ethereum Attestation Service protocol.",
    "version": 1
  },
  "storageLayout": {
    "storage": [
      {
        "astId": 1417,
        "contract": "contracts/EAS.sol:EAS",
        "label": "_nameFallback",
        "offset": 0,
        "slot": "0",
        "type": "t_string_storage"
      },
      {
        "astId": 1419,
        "contract": "contracts/EAS.sol:EAS",
        "label": "_versionFallback",
        "offset": 0,
        "slot": "1",
        "type": "t_string_storage"
      },
      {
        "astId": 8477,
        "contract": "contracts/EAS.sol:EAS",
        "label": "_name",
        "offset": 0,
        "slot": "2",
        "type": "t_string_storage"
      },
      {
        "astId": 8481,
        "contract": "contracts/EAS.sol:EAS",
        "label": "_nonces",
        "offset": 0,
        "slot": "3",
        "type": "t_mapping(t_address,t_uint256)"
      },
      {
        "astId": 5461,
        "contract": "contracts/EAS.sol:EAS",
        "label": "_db",
        "offset": 0,
        "slot": "4",
        "type": "t_mapping(t_bytes32,t_struct(Attestation)5354_storage)"
      },
      {
        "astId": 5465,
        "contract": "contracts/EAS.sol:EAS",
        "label": "_timestamps",
        "offset": 0,
        "slot": "5",
        "type": "t_mapping(t_bytes32,t_uint64)"
      },
      {
        "astId": 5471,
        "contract": "contracts/EAS.sol:EAS",
        "label": "_revocationsOffchain",
        "offset": 0,
        "slot": "6",
        "type": "t_mapping(t_address,t_mapping(t_bytes32,t_uint64))"
      }
    ],
    "types": {
      "t_address": {
        "encoding": "inplace",
        "label": "address",
        "numberOfBytes": "20"
      },
      "t_bool": {
        "encoding": "inplace",
        "label": "bool",
        "numberOfBytes": "1"
      },
      "t_bytes32": {
        "encoding": "inplace",
        "label": "bytes32",
        "numberOfBytes": "32"
      },
      "t_bytes_storage": {
        "encoding": "bytes",
        "label": "bytes",
        "numberOfBytes": "32"
      },
      "t_mapping(t_address,t_mapping(t_bytes32,t_uint64))": {
        "encoding": "mapping",
        "key": "t_address",
        "label": "mapping(address => mapping(bytes32 => uint64))",
        "numberOfBytes": "32",
        "value": "t_mapping(t_bytes32,t_uint64)"
      },
      "t_mapping(t_address,t_uint256)": {
        "encoding": "mapping",
        "key": "t_address",
        "label": "mapping(address => uint256)",
        "numberOfBytes": "32",
        "value": "t_uint256"
      },
      "t_mapping(t_bytes32,t_struct(Attestation)5354_storage)": {
        "encoding": "mapping",
        "key": "t_bytes32",
        "label": "mapping(bytes32 => struct Attestation)",
        "numberOfBytes": "32",
        "value": "t_struct(Attestation)5354_storage"
      },
      "t_mapping(t_bytes32,t_uint64)": {
        "encoding": "mapping",
        "key": "t_bytes32",
        "label": "mapping(bytes32 => uint64)",
        "numberOfBytes": "32",
        "value": "t_uint64"
      },
      "t_string_storage": {
        "encoding": "bytes",
        "label": "string",
        "numberOfBytes": "32"
      },
      "t_struct(Attestation)5354_storage": {
        "encoding": "inplace",
        "label": "struct Attestation",
        "members": [
          {
            "astId": 5335,
            "contract": "contracts/EAS.sol:EAS",
            "label": "uid",
            "offset": 0,
            "slot": "0",
            "type": "t_bytes32"
          },
          {
            "astId": 5337,
            "contract": "contracts/EAS.sol:EAS",
            "label": "schema",
            "offset": 0,
            "slot": "1",
            "type": "t_bytes32"
          },
          {
            "astId": 5339,
            "contract": "contracts/EAS.sol:EAS",
            "label": "time",
            "offset": 0,
            "slot": "2",
            "type": "t_uint64"
          },
          {
            "astId": 5341,
            "contract": "contracts/EAS.sol:EAS",
            "label": "expirationTime",
            "offset": 8,
            "slot": "2",
            "type": "t_uint64"
          },
          {
            "astId": 5343,
            "contract": "contracts/EAS.sol:EAS",
            "label": "revocationTime",
            "offset": 16,
            "slot": "2",
            "type": "t_uint64"
          },
          {
            "astId": 5345,
            "contract": "contracts/EAS.sol:EAS",
            "label": "refUID",
            "offset": 0,
            "slot": "3",
            "type": "t_bytes32"
          },
          {
            "astId": 5347,
            "contract": "contracts/EAS.sol:EAS",
            "label": "recipient",
            "offset": 0,
            "slot": "4",
            "type": "t_address"
          },
          {
            "astId": 5349,
            "contract": "contracts/EAS.sol:EAS",
            "label": "attester",
            "offset": 0,
            "slot": "5",
            "type": "t_address"
          },
          {
            "astId": 5351,
            "contract": "contracts/EAS.sol:EAS",
            "label": "revocable",
            "offset": 20,
            "slot": "5",
            "type": "t_bool"
          },
          {
            "astId": 5353,
            "contract": "contracts/EAS.sol:EAS",
            "label": "data",
            "offset": 0,
            "slot": "6",
            "type": "t_bytes_storage"
          }
        ],
        "numberOfBytes": "224"
      },
      "t_uint256": {
        "encoding": "inplace",
        "label": "uint256",
        "numberOfBytes": "32"
      },
      "t_uint64": {
        "encoding": "inplace",
        "label": "uint64",
        "numberOfBytes": "8"
      }
    }
  }
}