{
  "address": "0xA5f3029196241CDB315118EEfc9c2F94d37d373f",
  "abi": [
    {
      "inputs": [
        {
          "internalType": "contract ISchemaRegistry",
          "name": "registry",
          "type": "address"
        }
      ],
      "stateMutability": "nonpayable",
      "type": "constructor"
    },
    {
      "inputs": [],
      "name": "AccessDenied",
      "type": "error"
    },
    {
      "inputs": [],
      "name": "AlreadyRevoked",
      "type": "error"
    },
    {
      "inputs": [],
      "name": "AlreadyRevokedOffchain",
      "type": "error"
    },
    {
      "inputs": [],
      "name": "AlreadyTimestamped",
      "type": "error"
    },
    {
      "inputs": [],
      "name": "DeadlineExpired",
      "type": "error"
    },
    {
      "inputs": [],
      "name": "InsufficientValue",
      "type": "error"
    },
    {
      "inputs": [],
      "name": "InvalidAttestation",
      "type": "error"
    },
    {
      "inputs": [],
      "name": "InvalidAttestations",
      "type": "error"
    },
    {
      "inputs": [],
      "name": "InvalidExpirationTime",
      "type": "error"
    },
    {
      "inputs": [],
      "name": "InvalidLength",
      "type": "error"
    },
    {
      "inputs": [],
      "name": "InvalidNonce",
      "type": "error"
    },
    {
      "inputs": [],
      "name": "InvalidOffset",
      "type": "error"
    },
    {
      "inputs": [],
      "name": "InvalidRegistry",
      "type": "error"
    },
    {
      "inputs": [],
      "name": "InvalidRevocation",
      "type": "error"
    },
    {
      "inputs": [],
      "name": "InvalidRevocations",
      "type": "error"
    },
    {
      "inputs": [],
      "name": "InvalidSchema",
      "type": "error"
    },
    {
      "inputs": [],
      "name": "InvalidShortString",
      "type": "error"
    },
    {
      "inputs": [],
      "name": "InvalidSignature",
      "type": "error"
    },
    {
      "inputs": [],
      "name": "InvalidVerifier",
      "type": "error"
    },
    {
      "inputs": [],
      "name": "Irrevocable",
      "type": "error"
    },
    {
      "inputs": [],
      "name": "NotFound",
      "type": "error"
    },
    {
      "inputs": [],
      "name": "NotPayable",
      "type": "error"
    },
    {
      "inputs": [
        {
          "internalType": "string",
          "name": "str",
          "type": "string"
        }
      ],
      "name": "StringTooLong",
      "type": "error"
    },
    {
      "inputs": [],
      "name": "WrongSchema",
      "type": "error"
    },
    {
      "anonymous": false,
      "inputs": [
        {
          "indexed": true,
          "internalType": "address",
          "name": "recipient",
          "type": "address"
        },
        {
          "indexed": true,
          "internalType": "address",
          "name": "attester",
          "type": "address"
        },
        {
          "indexed": false,
          "internalType": "bytes32",
          "name": "uid",
          "type": "bytes32"
        },
        {
          "indexed": true,
          "internalType": "bytes32",
          "name": "schemaUID",
          "type": "bytes32"
        }
      ],
      "name": "Attested",
      "type": "event"
    },
    {
      "anonymous": false,
      "inputs": [],
      "name": "EIP712DomainChanged",
      "type": "event"
    },
    {
      "anonymous": false,
      "inputs": [
        {
          "indexed": false,
          "internalType": "uint256",
          "name": "oldNonce",
          "type": "uint256"
        },
        {
          "indexed": false,
          "internalType": "uint256",
          "name": "newNonce",
          "type": "uint256"
        }
      ],
      "name": "NonceIncreased",
      "type": "event"
    },
    {
      "anonymous": false,
      "inputs": [
        {
          "indexed": true,
          "internalType": "address",
          "name": "recipient",
          "type": "address"
        },
        {
          "indexed": true,
          "internalType": "address",
          "name": "attester",
          "type": "address"
        },
        {
          "indexed": false,
          "internalType": "bytes32",
          "name": "uid",
          "type": "bytes32"
        },
        {
          "indexed": true,
          "internalType": "bytes32",
          "name": "schemaUID",
          "type": "bytes32"
        }
      ],
      "name": "Revoked",
      "type": "event"
    },
    {
      "anonymous": false,
      "inputs": [
        {
          "indexed": true,
          "internalType": "address",
          "name": "revoker",
          "type": "address"
        },
        {
          "indexed": true,
          "internalType": "bytes32",
          "name": "data",
          "type": "bytes32"
        },
        {
          "indexed": true,
          "internalType": "uint64",
          "name": "timestamp",
          "type": "uint64"
        }
      ],
      "name": "RevokedOffchain",
      "type": "event"
    },
    {
      "anonymous": false,
      "inputs": [
        {
          "indexed": true,
          "internalType": "bytes32",
          "name": "data",
          "type": "bytes32"
        },
        {
          "indexed": true,
          "internalType": "uint64",
          "name": "timestamp",
          "type": "uint64"
        }
      ],
      "name": "Timestamped",
      "type": "event"
    },
    {
      "inputs": [
        {
          "components": [
            {
              "internalType": "bytes32",
              "name": "schema",
              "type": "bytes32"
            },
            {
              "components": [
                {
                  "internalType": "address",
                  "name": "recipient",
                  "type": "address"
                },
                {
                  "internalType": "uint64",
                  "name": "expirationTime",
                  "type": "uint64"
                },
                {
                  "internalType": "bool",
                  "name": "revocable",
                  "type": "bool"
                },
                {
                  "internalType": "bytes32",
                  "name": "refUID",
                  "type": "bytes32"
                },
                {
                  "internalType": "bytes",
                  "name": "data",
                  "type": "bytes"
                },
                {
                  "internalType": "uint256",
                  "name": "value",
                  "type": "uint256"
                }
              ],
              "internalType": "struct AttestationRequestData",
              "name": "data",
              "type": "tuple"
            }
          ],
          "internalType": "struct AttestationRequest",
          "name": "request",
          "type": "tuple"
        }
      ],
      "name": "attest",
      "outputs": [
        {
          "internalType": "bytes32",
          "name": "",
          "type": "bytes32"
        }
      ],
      "stateMutability": "payable",
      "type": "function"
    },
    {
      "inputs": [
        {
          "components": [
            {
              "internalType": "bytes32",
              "name": "schema",
              "type": "bytes32"
            },
            {
              "components": [
                {
                  "internalType": "address",
                  "name": "recipient",
                  "type": "address"
                },
                {
                  "internalType": "uint64",
                  "name": "expirationTime",
                  "type": "uint64"
                },
                {
                  "internalType": "bool",
                  "name": "revocable",
                  "type": "bool"
                },
                {
                  "internalType": "bytes32",
                  "name": "refUID",
                  "type": "bytes32"
                },
                {
                  "internalType": "bytes",
                  "name": "data",
                  "type": "bytes"
                },
                {
                  "internalType": "uint256",
                  "name": "value",
                  "type": "uint256"
                }
              ],
              "internalType": "struct AttestationRequestData",
              "name": "data",
              "type": "tuple"
            },
            {
              "components": [
                {
                  "internalType": "uint8",
                  "name": "v",
                  "type": "uint8"
                },
                {
                  "internalType": "bytes32",
                  "name": "r",
                  "type": "bytes32"
                },
                {
                  "internalType": "bytes32",
                  "name": "s",
                  "type": "bytes32"
                }
              ],
              "internalType": "struct Signature",
              "name": "signature",
              "type": "tuple"
            },
            {
              "internalType": "address",
              "name": "attester",
              "type": "address"
            },
            {
              "internalType": "uint64",
              "name": "deadline",
              "type": "uint64"
            }
          ],
          "internalType": "struct DelegatedAttestationRequest",
          "name": "delegatedRequest",
          "type": "tuple"
        }
      ],
      "name": "attestByDelegation",
      "outputs": [
        {
          "internalType": "bytes32",
          "name": "",
          "type": "bytes32"
        }
      ],
      "stateMutability": "payable",
      "type": "function"
    },
    {
      "inputs": [],
      "name": "eip712Domain",
      "outputs": [
        {
          "internalType": "bytes1",
          "name": "fields",
          "type": "bytes1"
        },
        {
          "internalType": "string",
          "name": "name",
          "type": "string"
        },
        {
          "internalType": "string",
          "name": "version",
          "type": "string"
        },
        {
          "internalType": "uint256",
          "name": "chainId",
          "type": "uint256"
        },
        {
          "internalType": "address",
          "name": "verifyingContract",
          "type": "address"
        },
        {
          "internalType": "bytes32",
          "name": "salt",
          "type": "bytes32"
        },
        {
          "internalType": "uint256[]",
          "name": "extensions",
          "type": "uint256[]"
        }
      ],
      "stateMutability": "view",
      "type": "function"
    },
    {
      "inputs": [],
      "name": "getAttestTypeHash",
      "outputs": [
        {
          "internalType": "bytes32",
          "name": "",
          "type": "bytes32"
        }
      ],
      "stateMutability": "pure",
      "type": "function"
    },
    {
      "inputs": [
        {
          "internalType": "bytes32",
          "name": "uid",
          "type": "bytes32"
        }
      ],
      "name": "getAttestation",
      "outputs": [
        {
          "components": [
            {
              "internalType": "bytes32",
              "name": "uid",
              "type": "bytes32"
            },
            {
              "internalType": "bytes32",
              "name": "schema",
              "type": "bytes32"
            },
            {
              "internalType": "uint64",
              "name": "time",
              "type": "uint64"
            },
            {
              "internalType": "uint64",
              "name": "expirationTime",
              "type": "uint64"
            },
            {
              "internalType": "uint64",
              "name": "revocationTime",
              "type": "uint64"
            },
            {
              "internalType": "bytes32",
              "name": "refUID",
              "type": "bytes32"
            },
            {
              "internalType": "address",
              "name": "recipient",
              "type": "address"
            },
            {
              "internalType": "address",
              "name": "attester",
              "type": "address"
            },
            {
              "internalType": "bool",
              "name": "revocable",
              "type": "bool"
            },
            {
              "internalType": "bytes",
              "name": "data",
              "type": "bytes"
            }
          ],
          "internalType": "struct Attestation",
          "name": "",
          "type": "tuple"
        }
      ],
      "stateMutability": "view",
      "type": "function"
    },
    {
      "inputs": [],
      "name": "getDomainSeparator",
      "outputs": [
        {
          "internalType": "bytes32",
          "name": "",
          "type": "bytes32"
        }
      ],
      "stateMutability": "view",
      "type": "function"
    },
    {
      "inputs": [],
      "name": "getName",
      "outputs": [
        {
          "internalType": "string",
          "name": "",
          "type": "string"
        }
      ],
      "stateMutability": "view",
      "type": "function"
    },
    {
      "inputs": [
        {
          "internalType": "address",
          "name": "account",
          "type": "address"
        }
      ],
      "name": "getNonce",
      "outputs": [
        {
          "internalType": "uint256",
          "name": "",
          "type": "uint256"
        }
      ],
      "stateMutability": "view",
      "type": "function"
    },
    {
      "inputs": [
        {
          "internalType": "address",
          "name": "revoker",
          "type": "address"
        },
        {
          "internalType": "bytes32",
          "name": "data",
          "type": "bytes32"
        }
      ],
      "name": "getRevokeOffchain",
      "outputs": [
        {
          "internalType": "uint64",
          "name": "",
          "type": "uint64"
        }
      ],
      "stateMutability": "view",
      "type": "function"
    },
    {
      "inputs": [],
      "name": "getRevokeTypeHash",
      "outputs": [
        {
          "internalType": "bytes32",
          "name": "",
          "type": "bytes32"
        }
      ],
      "stateMutability": "pure",
      "type": "function"
    },
    {
      "inputs": [],
      "name": "getSchemaRegistry",
      "outputs": [
        {
          "internalType": "contract ISchemaRegistry",
          "name": "",
          "type": "address"
        }
      ],
      "stateMutability": "view",
      "type": "function"
    },
    {
      "inputs": [
        {
          "internalType": "bytes32",
          "name": "data",
          "type": "bytes32"
        }
      ],
      "name": "getTimestamp",
      "outputs": [
        {
          "internalType": "uint64",
          "name": "",
          "type": "uint64"
        }
      ],
      "stateMutability": "view",
      "type": "function"
    },
    {
      "inputs": [
        {
          "internalType": "uint256",
          "name": "newNonce",
          "type": "uint256"
        }
      ],
      "name": "increaseNonce",
      "outputs": [],
      "stateMutability": "nonpayable",
      "type": "function"
    },
    {
      "inputs": [
        {
          "internalType": "bytes32",
          "name": "uid",
          "type": "bytes32"
        }
      ],
      "name": "isAttestationValid",
      "outputs": [
        {
          "internalType": "bool",
          "name": "",
          "type": "bool"
        }
      ],
      "stateMutability": "view",
      "type": "function"
    },
    {
      "inputs": [
        {
          "components": [
            {
              "internalType": "bytes32",
              "name": "schema",
              "type": "bytes32"
            },
            {
              "components": [
                {
                  "internalType": "address",
                  "name": "recipient",
                  "type": "address"
                },
                {
                  "internalType": "uint64",
                  "name": "expirationTime",
                  "type": "uint64"
                },
                {
                  "internalType": "bool",
                  "name": "revocable",
                  "type": "bool"
                },
                {
                  "internalType": "bytes32",
                  "name": "refUID",
                  "type": "bytes32"
                },
                {
                  "internalType": "bytes",
                  "name": "data",
                  "type": "bytes"
                },
                {
                  "internalType": "uint256",
                  "name": "value",
                  "type": "uint256"
                }
              ],
              "internalType": "struct AttestationRequestData[]",
              "name": "data",
              "type": "tuple[]"
            }
          ],
          "internalType": "struct MultiAttestationRequest[]",
          "name": "multiRequests",
          "type": "tuple[]"
        }
      ],
      "name": "multiAttest",
      "outputs": [
        {
          "internalType": "bytes32[]",
          "name": "",
          "type": "bytes32[]"
        }
      ],
      "stateMutability": "payable",
      "type": "function"
    },
    {
      "inputs": [
        {
          "components": [
            {
              "internalType": "bytes32",
              "name": "schema",
              "type": "bytes32"
            },
            {
              "components": [
                {
                  "internalType": "address",
                  "name": "recipient",
                  "type": "address"
                },
                {
                  "internalType": "uint64",
                  "name": "expirationTime",
                  "type": "uint64"
                },
                {
                  "internalType": "bool",
                  "name": "revocable",
                  "type": "bool"
                },
                {
                  "internalType": "bytes32",
                  "name": "refUID",
                  "type": "bytes32"
                },
                {
                  "internalType": "bytes",
                  "name": "data",
                  "type": "bytes"
                },
                {
                  "internalType": "uint256",
                  "name": "value",
                  "type": "uint256"
                }
              ],
              "internalType": "struct AttestationRequestData[]",
              "name": "data",
              "type": "tuple[]"
            },
            {
              "components": [
                {
                  "internalType": "uint8",
                  "name": "v",
                  "type": "uint8"
                },
                {
                  "internalType": "bytes32",
                  "name": "r",
                  "type": "bytes32"
                },
                {
                  "internalType": "bytes32",
                  "name": "s",
                  "type": "bytes32"
                }
              ],
              "internalType": "struct Signature[]",
              "name": "signatures",
              "type": "tuple[]"
            },
            {
              "internalType": "address",
              "name": "attester",
              "type": "address"
            },
            {
              "internalType": "uint64",
              "name": "deadline",
              "type": "uint64"
            }
          ],
          "internalType": "struct MultiDelegatedAttestationRequest[]",
          "name": "multiDelegatedRequests",
          "type": "tuple[]"
        }
      ],
      "name": "multiAttestByDelegation",
      "outputs": [
        {
          "internalType": "bytes32[]",
          "name": "",
          "type": "bytes32[]"
        }
      ],
      "stateMutability": "payable",
      "type": "function"
    },
    {
      "inputs": [
        {
          "components": [
            {
              "internalType": "bytes32",
              "name": "schema",
              "type": "bytes32"
            },
            {
              "components": [
                {
                  "internalType": "bytes32",
                  "name": "uid",
                  "type": "bytes32"
                },
                {
                  "internalType": "uint256",
                  "name": "value",
                  "type": "uint256"
                }
              ],
              "internalType": "struct RevocationRequestData[]",
              "name": "data",
              "type": "tuple[]"
            }
          ],
          "internalType": "struct MultiRevocationRequest[]",
          "name": "multiRequests",
          "type": "tuple[]"
        }
      ],
      "name": "multiRevoke",
      "outputs": [],
      "stateMutability": "payable",
      "type": "function"
    },
    {
      "inputs": [
        {
          "components": [
            {
              "internalType": "bytes32",
              "name": "schema",
              "type": "bytes32"
            },
            {
              "components": [
                {
                  "internalType": "bytes32",
                  "name": "uid",
                  "type": "bytes32"
                },
                {
                  "internalType": "uint256",
                  "name": "value",
                  "type": "uint256"
                }
              ],
              "internalType": "struct RevocationRequestData[]",
              "name": "data",
              "type": "tuple[]"
            },
            {
              "components": [
                {
                  "internalType": "uint8",
                  "name": "v",
                  "type": "uint8"
                },
                {
                  "internalType": "bytes32",
                  "name": "r",
                  "type": "bytes32"
                },
                {
                  "internalType": "bytes32",
                  "name": "s",
                  "type": "bytes32"
                }
              ],
              "internalType": "struct Signature[]",
              "name": "signatures",
              "type": "tuple[]"
            },
            {
              "internalType": "address",
              "name": "revoker",
              "type": "address"
            },
            {
              "internalType": "uint64",
              "name": "deadline",
              "type": "uint64"
            }
          ],
          "internalType": "struct MultiDelegatedRevocationRequest[]",
          "name": "multiDelegatedRequests",
          "type": "tuple[]"
        }
      ],
      "name": "multiRevokeByDelegation",
      "outputs": [],
      "stateMutability": "payable",
      "type": "function"
    },
    {
      "inputs": [
        {
          "internalType": "bytes32[]",
          "name": "data",
          "type": "bytes32[]"
        }
      ],
      "name": "multiRevokeOffchain",
      "outputs": [
        {
          "internalType": "uint64",
          "name": "",
          "type": "uint64"
        }
      ],
      "stateMutability": "nonpayable",
      "type": "function"
    },
    {
      "inputs": [
        {
          "internalType": "bytes32[]",
          "name": "data",
          "type": "bytes32[]"
        }
      ],
      "name": "multiTimestamp",
      "outputs": [
        {
          "internalType": "uint64",
          "name": "",
          "type": "uint64"
        }
      ],
      "stateMutability": "nonpayable",
      "type": "function"
    },
    {
      "inputs": [
        {
          "components": [
            {
              "internalType": "bytes32",
              "name": "schema",
              "type": "bytes32"
            },
            {
              "components": [
                {
                  "internalType": "bytes32",
                  "name": "uid",
                  "type": "bytes32"
                },
                {
                  "internalType": "uint256",
                  "name": "value",
                  "type": "uint256"
                }
              ],
              "internalType": "struct RevocationRequestData",
              "name": "data",
              "type": "tuple"
            }
          ],
          "internalType": "struct RevocationRequest",
          "name": "request",
          "type": "tuple"
        }
      ],
      "name": "revoke",
      "outputs": [],
      "stateMutability": "payable",
      "type": "function"
    },
    {
      "inputs": [
        {
          "components": [
            {
              "internalType": "bytes32",
              "name": "schema",
              "type": "bytes32"
            },
            {
              "components": [
                {
                  "internalType": "bytes32",
                  "name": "uid",
                  "type": "bytes32"
                },
                {
                  "internalType": "uint256",
                  "name": "value",
                  "type": "uint256"
                }
              ],
              "internalType": "struct RevocationRequestData",
              "name": "data",
              "type": "tuple"
            },
            {
              "components": [
                {
                  "internalType": "uint8",
                  "name": "v",
                  "type": "uint8"
                },
                {
                  "internalType": "bytes32",
                  "name": "r",
                  "type": "bytes32"
                },
                {
                  "internalType": "bytes32",
                  "name": "s",
                  "type": "bytes32"
                }
              ],
              "internalType": "struct Signature",
              "name": "signature",
              "type": "tuple"
            },
            {
              "internalType": "address",
              "name": "revoker",
              "type": "address"
            },
            {
              "internalType": "uint64",
              "name": "deadline",
              "type": "uint64"
            }
          ],
          "internalType": "struct DelegatedRevocationRequest",
          "name": "delegatedRequest",
          "type": "tuple"
        }
      ],
      "name": "revokeByDelegation",
      "outputs": [],
      "stateMutability": "payable",
      "type": "function"
    },
    {
      "inputs": [
        {
          "internalType": "bytes32",
          "name": "data",
          "type": "bytes32"
        }
      ],
      "name": "revokeOffchain",
      "outputs": [
        {
          "internalType": "uint64",
          "name": "",
          "type": "uint64"
        }
      ],
      "stateMutability": "nonpayable",
      "type": "function"
    },
    {
      "inputs": [
        {
          "internalType": "bytes32",
          "name": "data",
          "type": "bytes32"
        }
      ],
      "name": "timestamp",
      "outputs": [
        {
          "internalType": "uint64",
          "name": "",
          "type": "uint64"
        }
      ],
      "stateMutability": "nonpayable",
      "type": "function"
    },
    {
      "inputs": [],
      "name": "version",
      "outputs": [
        {
          "internalType": "string",
          "name": "",
          "type": "string"
        }
      ],
      "stateMutability": "view",
      "type": "function"
    }
  ],
  "transactionHash": "0x04dcde5fc1231589a601954ee6b6cbcb2fa877d3c8654a1dfa79c6d68d1c58e5",
  "args": [
    "0xBc58b8bd555A63c36Cff898604e318dF90B166d2"
  ],
  "numDeployments": 1,
  "solcInputHash": "75db587467f60d43e510ddb40e9eb52c",
  "bytecode": "0x6101e06040523480156200001257600080fd5b50604051620048d9380380620048d983398101604081905262000035916200024d565b60408051808201825260038082526245415360e81b602080840191909152835180850190945260058452640312e332e360dc1b90840152600160805260a052600060c0819052909190829082906200008f90839062000122565b61018052620000a081600162000122565b6101a052815160208084019190912061014052815190820120610160524661010052620000cc6200015b565b60e052505030610120526002620000e4838262000385565b5050506001600160a01b0381166200010f576040516311a1e69760e01b815260040160405180910390fd5b6001600160a01b03166101c05262000582565b600060208351101562000142576200013a83620001b8565b905062000155565b816200014f848262000385565b5060ff90505b92915050565b61014051610160516040516000926200019d927f8b73c3c69bb8fe3d512ecc4cf759cc79239f7b179b0ffacaa9a75d522b39400f924690309060200162000468565b60405160208183030381529060405280519060200120905090565b600080829050601f81511115620001ef578260405163305a27a960e01b8152600401620001e6919062000519565b60405180910390fd5b8051620001fc826200053e565b179392505050565b90565b60006001600160a01b03821662000155565b6000620001558262000207565b620002318162000219565b81146200023d57600080fd5b50565b8051620001558162000226565b600060208284031215620002645762000264600080fd5b600062000272848462000240565b949350505050565b634e487b7160e01b600052604160045260246000fd5b634e487b7160e01b600052602260045260246000fd5b600281046001821680620002bb57607f821691505b602082108103620002d057620002d062000290565b50919050565b600062000155620002048381565b620002ef83620002d6565b815460001960089490940293841b1916921b91909117905550565b600062000319818484620002e4565b505050565b818110156200033d57620003346000826200030a565b6001016200031e565b5050565b601f82111562000319576000818152602090206020601f850104810160208510156200036a5750805b6200037e6020601f8601048301826200031e565b5050505050565b81516001600160401b03811115620003a157620003a16200027a565b620003ad8254620002a6565b620003ba82828562000341565b6020601f831160018114620003f15760008415620003d85750858201515b600019600886021c19811660028602178655506200044d565b600085815260208120601f198616915b8281101562000423578885015182556020948501946001909201910162000401565b86831015620004405784890151600019601f89166008021c191682555b6001600288020188555050505b505050505050565b805b82525050565b620004578162000207565b60a0810162000478828862000455565b62000487602083018762000455565b62000496604083018662000455565b620004a5606083018562000455565b620004b460808301846200045d565b9695505050505050565b60005b83811015620004db578181015183820152602001620004c1565b50506000910152565b6000620004ef825190565b80845260208401935062000508818560208601620004be565b601f01601f19169290920192915050565b602080825281016200052c8184620004e4565b9392505050565b600062000155825190565b600062000549825190565b60208301620005588162000533565b925060208210156200057b5762000576600019836020036008021b90565b831692505b5050919050565b60805160a05160c05160e05161010051610120516101405161016051610180516101a0516101c0516142c262000617600039600081816104c8015281816112c8015261197f01526000610c0f01526000610be5015260006126f3015260006126d20152600061211b015260006121450152600061216f01526000610b0d01526000610ae401526000610abb01526142c26000f3fe6080604052600436106101665760003560e01c806384b0196e116100d1578063cf190f341161008a578063e71ff36511610064578063e71ff36514610484578063ed24911d146104a4578063f10b5cc8146104b9578063f17325e7146104f457600080fd5b8063cf190f34146103f2578063d45c443514610412578063e30bb5631461044857600080fd5b806384b0196e146102f85780639541152514610320578063a3112a6414610333578063a6d4dbc714610360578063b469318d14610373578063b83010d3146103bf57600080fd5b806344adc90e1161012357806344adc90e1461025d578063469262671461027d5780634cb7e9e5146102905780634d003070146102a357806354fd4d50146102c357806379f7573a146102d857600080fd5b80630eabf6601461016b57806312b11a171461018057806313893f61146101c557806317d7de7c146101f25780632d0335ab146102145780633c0427151461024a575b600080fd5b61017e610179366004612ce7565b610507565b005b34801561018c57600080fd5b507ffeb2925a02bae3dae48d424a0437a2b6ac939aa9230ddc55a1a76f065d9880765b6040516101bc9190612d36565b60405180910390f35b3480156101d157600080fd5b506101e56101e0366004612ce7565b610659565b6040516101bc9190612d53565b3480156101fe57600080fd5b5061020761069e565b6040516101bc9190612db7565b34801561022057600080fd5b506101af61022f366004612df8565b6001600160a01b031660009081526003602052604090205490565b6101af610258366004612e3c565b610730565b61027061026b366004612ce7565b610815565b6040516101bc9190612ed3565b61017e61028b366004612ef9565b61095e565b61017e61029e366004612ce7565b6109e2565b3480156102af57600080fd5b506101e56102be366004612f2b565b610aa7565b3480156102cf57600080fd5b50610207610ab4565b3480156102e457600080fd5b5061017e6102f3366004612f2b565b610b57565b34801561030457600080fd5b5061030d610bd7565b6040516101bc9796959493929190612fa3565b61027061032e366004612ce7565b610c5f565b34801561033f57600080fd5b5061035361034e366004612f2b565b610e8c565b6040516101bc91906130f0565b61017e61036e366004613117565b610fd2565b34801561037f57600080fd5b506101e561038e366004613139565b6001600160a01b0391909116600090815260066020908152604080832093835292905220546001600160401b031690565b3480156103cb57600080fd5b507fb5d556f07587ec0f08cf386545cc4362c702a001650c2058002615ee5c9d1e756101af565b3480156103fe57600080fd5b506101e561040d366004612f2b565b611077565b34801561041e57600080fd5b506101e561042d366004612f2b565b6000908152600560205260409020546001600160401b031690565b34801561045457600080fd5b50610477610463366004612f2b565b600090815260046020526040902054151590565b6040516101bc9190613176565b34801561049057600080fd5b506101e561049f366004612ce7565b611085565b3480156104b057600080fd5b506101af6110bd565b3480156104c557600080fd5b507f00000000000000000000000000000000000000000000000000000000000000006040516101bc91906131c6565b6101af6105023660046131e9565b6110cc565b348160005b818110156106525760001982018114600086868481811061052f5761052f613223565b90506020028101906105419190613239565b61054a9061356b565b602081015180519192509080158061056757508260400151518114155b156105855760405163251f56a160e21b815260040160405180910390fd5b60005b8181101561061b576106136040518060a00160405280866000015181526020018584815181106105ba576105ba613223565b60200260200101518152602001866040015184815181106105dd576105dd613223565b6020026020010151815260200186606001516001600160a01b0316815260200186608001516001600160401b031681525061116c565b600101610588565b5061063183600001518385606001518a886112c3565b61063b908861358d565b96505050505061064b8160010190565b905061050c565b5050505050565b60004282825b818110156106925761068a3387878481811061067d5761067d613223565b9050602002013585611749565b60010161065f565b50909150505b92915050565b6060600280546106ad906135b6565b80601f01602080910402602001604051908101604052809291908181526020018280546106d9906135b6565b80156107265780601f106106fb57610100808354040283529160200191610726565b820191906000526020600020905b81548152906001019060200180831161070957829003601f168201915b5050505050905090565b600061074361073e836137c5565b6117fc565b604080516001808252818301909252600091816020015b6040805160c081018252600080825260208083018290529282018190526060808301829052608083015260a0820152825260001990920191018161075a5790505090506107aa60208401846137d1565b6107b3906137eb565b816000815181106107c6576107c6613223565b60209081029190910101526107ef8335826107e760c0870160a08801612df8565b3460016118f2565b6020015160008151811061080557610805613223565b6020026020010151915050919050565b6060816000816001600160401b038111156108325761083261325d565b60405190808252806020026020018201604052801561086557816020015b60608152602001906001900390816108505790505b509050600034815b8481101561094857600019850181143689898481811061088f5761088f613223565b90506020028101906108a191906137f7565b90506108b06020820182613811565b90506000036108d25760405163251f56a160e21b815260040160405180910390fd5b60006108f782356108e66020850185613811565b6108ef916138da565b3388876118f2565b8051909150610906908661358d565b9450806020015187858151811061091f5761091f613223565b6020026020010181905250806020015151860195505050506109418160010190565b905061086d565b506109538383611e57565b979650505050505050565b604080516001808252818301909252600091816020015b60408051808201909152600080825260208201528152602001906001900390816109755790505090506109b0368390038301602084016138e7565b816000815181106109c3576109c3613223565b60209081029190910101526109dd823582333460016112c3565b505050565b348160005b81811015610652576000198201811436868684818110610a0957610a09613223565b9050602002810190610a1b91906137f7565b9050610a888135610a2f6020840184613908565b808060200260200160405190810160405280939291908181526020016000905b82821015610a7b57610a6c604083028601368190038101906138e7565b81526020019060010190610a4f565b50505050503388866112c3565b610a92908661358d565b94505050610aa08160010190565b90506109e7565b6000426106988382611f40565b6060610adf7f0000000000000000000000000000000000000000000000000000000000000000611fd0565b610b087f0000000000000000000000000000000000000000000000000000000000000000611fd0565b610b317f0000000000000000000000000000000000000000000000000000000000000000611fd0565b604051602001610b4393929190613991565b604051602081830303815290604052905090565b33600090815260036020526040902054808211610b8757604051633ab3447f60e11b815260040160405180910390fd5b3360009081526003602052604090819020839055517f57b09af877df9068fd60a69d7b21f5576b8b38955812d6ae4ac52942f1e38fb790610bcb90839085906139cb565b60405180910390a15050565b600060608082808083610c0a7f000000000000000000000000000000000000000000000000000000000000000083612063565b610c357f00000000000000000000000000000000000000000000000000000000000000006001612063565b60408051600080825260208201909252600f60f81b9b939a50919850469750309650945092509050565b6060816000816001600160401b03811115610c7c57610c7c61325d565b604051908082528060200260200182016040528015610caf57816020015b6060815260200190600190039081610c9a5790505b509050600034815b84811015610948576000198501811436898984818110610cd957610cd9613223565b9050602002810190610ceb9190613239565b9050366000610cfd6020840184613811565b909250905080801580610d1e5750610d1860408501856139e6565b90508114155b15610d3c5760405163251f56a160e21b815260040160405180910390fd5b60005b81811015610e0f57610e076040518060a0016040528087600001358152602001868685818110610d7157610d71613223565b9050602002810190610d8391906137d1565b610d8c906137eb565b8152602001610d9e60408901896139e6565b85818110610dae57610dae613223565b905060600201803603810190610dc49190613a3c565b8152602001610dd96080890160608a01612df8565b6001600160a01b03168152602001610df760a0890160808a01613a5d565b6001600160401b031690526117fc565b600101610d3f565b506000610e388535610e2185876138da565b610e316080890160608a01612df8565b8b8a6118f2565b8051909150610e47908961358d565b975080602001518a8881518110610e6057610e60613223565b602002602001018190525080602001515189019850505050505050610e858160010190565b9050610cb7565b610e94612c47565b6000828152600460208181526040928390208351610140810185528154815260018201549281019290925260028101546001600160401b0380821695840195909552600160401b810485166060840152600160801b90049093166080820152600383015460a0820152908201546001600160a01b0390811660c0830152600583015490811660e0830152600160a01b900460ff16151561010082015260068201805491929161012084019190610f49906135b6565b80601f0160208091040260200160405190810160405280929190818152602001828054610f75906135b6565b8015610fc25780601f10610f9757610100808354040283529160200191610fc2565b820191906000526020600020905b815481529060010190602001808311610fa557829003601f168201915b5050505050815250509050919050565b610fe9610fe436839003830183613af9565b61116c565b604080516001808252818301909252600091816020015b604080518082019091526000808252602082015281526020019060019003908161100057905050905061103b368390038301602084016138e7565b8160008151811061104e5761104e613223565b60209081029190910101526109dd82358261106f60e0860160c08701612df8565b3460016112c3565b600042610698338483611749565b60004282825b81811015610692576110b58686838181106110a8576110a8613223565b9050602002013584611f40565b60010161108b565b60006110c761210e565b905090565b604080516001808252818301909252600091829190816020015b6040805160c081018252600080825260208083018290529282018190526060808301829052608083015260a082015282526000199092019101816110e657905050905061113660208401846137d1565b61113f906137eb565b8160008151811061115257611152613223565b60209081029190910101526107ef833582333460016118f2565b60808101516001600160401b03161580159061119d5750426001600160401b031681608001516001600160401b0316105b156111bb57604051631ab7da6b60e01b815260040160405180910390fd5b602080820151604080840151606085015185518451858701516001600160a01b038416600090815260039098529487208054969794969495611260957fb5d556f07587ec0f08cf386545cc4362c702a001650c2058002615ee5c9d1e75959493928861122683613b1b565b919050558a608001516040516020016112459796959493929190613b2e565b60405160208183030381529060405280519060200120612199565b90506112a084606001518284602001518560400151866000015160405160200161128c93929190613bb4565b6040516020818303038152906040526121c6565b6112bd57604051638baa579f60e01b815260040160405180910390fd5b50505050565b6000807f00000000000000000000000000000000000000000000000000000000000000006001600160a01b031663a2ea7c6e886040518263ffffffff1660e01b81526004016113129190612d36565b600060405180830381865afa15801561132f573d6000803e3d6000fd5b505050506040513d6000823e601f3d908101601f191682016040526113579190810190613d04565b805190915061137957604051635f9bd90760e11b815260040160405180910390fd5b85516000816001600160401b038111156113955761139561325d565b6040519080825280602002602001820160405280156113ce57816020015b6113bb612c47565b8152602001906001900390816113b35790505b5090506000826001600160401b038111156113eb576113eb61325d565b604051908082528060200260200182016040528015611414578160200160208202803683370190505b50905060005b838110156117295760008a828151811061143657611436613223565b60209081029190910181015180516000908152600490925260409091208054919250906114765760405163c5723b5160e01b815260040160405180910390fd5b8c81600101541461149a57604051635f9bd90760e11b815260040160405180910390fd5b60058101546001600160a01b038c81169116146114ca57604051634ca8886760e01b815260040160405180910390fd5b6005810154600160a01b900460ff166114f65760405163157bd4c360e01b815260040160405180910390fd5b6002810154600160801b90046001600160401b0316156115295760405163905e710760e01b815260040160405180910390fd5b4260028201805467ffffffffffffffff60801b198116600160801b6001600160401b03948516810291821793849055604080516101408101825287548152600188015460208201529386169286169290921791830191909152600160401b8304841660608301529091049091166080820152600382015460a082015260048201546001600160a01b0390811660c0830152600583015490811660e0830152600160a01b900460ff16151561010082015260068201805483916101208401916115f0906135b6565b80601f016020809104026020016040519081016040528092919081815260200182805461161c906135b6565b80156116695780601f1061163e57610100808354040283529160200191611669565b820191906000526020600020905b81548152906001019060200180831161164c57829003601f168201915b50505050508152505085848151811061168457611684613223565b602002602001018190525081602001518484815181106116a6576116a6613223565b6020026020010181815250508c8b6001600160a01b03168685815181106116cf576116cf613223565b602002602001015160c001516001600160a01b03167ff930a6e2523c9cc298691873087a740550b8fc85a0680830414c148ed927f61585600001516040516117179190612d36565b60405180910390a4505060010161141a565b5061173984838360018b8b612229565b9450505050505b95945050505050565b6001600160a01b038316600090815260066020908152604080832085845291829052909120546001600160401b0316156117965760405163ec9d6eeb60e01b815260040160405180910390fd5b600083815260208290526040808220805467ffffffffffffffff19166001600160401b0386169081179091559051909185916001600160a01b038816917f92a1f7a41a7c585a8b09e25b195e225b1d43248daca46b0faf9e0792777a222991a450505050565b60808101516001600160401b03161580159061182d5750426001600160401b031681608001516001600160401b0316105b1561184b57604051631ab7da6b60e01b815260040160405180910390fd5b6020808201516040808401516060808601518651855186880151868801519488015160808901518051908b012060a08a01516001600160a01b03871660009081526003909c52988b2080549a9b989a9899611260997ffeb2925a02bae3dae48d424a0437a2b6ac939aa9230ddc55a1a76f065d988076999493928c6118cf83613b1b565b919050558e608001516040516020016112459b9a99989796959493929190613d3e565b6040805180820190915260008152606060208201528451604080518082019091526000815260606020820152816001600160401b038111156119365761193661325d565b60405190808252806020026020018201604052801561195f578160200160208202803683370190505b5060208201526040516351753e3760e11b81526000906001600160a01b037f0000000000000000000000000000000000000000000000000000000000000000169063a2ea7c6e906119b4908c90600401612d36565b600060405180830381865afa1580156119d1573d6000803e3d6000fd5b505050506040513d6000823e601f3d908101601f191682016040526119f99190810190613d04565b8051909150611a1b57604051635f9bd90760e11b815260040160405180910390fd5b6000836001600160401b03811115611a3557611a3561325d565b604051908082528060200260200182016040528015611a6e57816020015b611a5b612c47565b815260200190600190039081611a535790505b5090506000846001600160401b03811115611a8b57611a8b61325d565b604051908082528060200260200182016040528015611ab4578160200160208202803683370190505b50905060005b85811015611e365760008b8281518110611ad657611ad6613223565b6020026020010151905060006001600160401b031681602001516001600160401b031614158015611b1d5750426001600160401b031681602001516001600160401b031611155b15611b3b576040516308e8b93760e01b815260040160405180910390fd5b8460400151158015611b4e575080604001515b15611b6c5760405163157bd4c360e01b815260040160405180910390fd5b60006040518061014001604052806000801b81526020018f8152602001611b904290565b6001600160401b0316815260200183602001516001600160401b0316815260200160006001600160401b031681526020018360600151815260200183600001516001600160a01b031681526020018d6001600160a01b0316815260200183604001511515815260200183608001518152509050600080600090505b611c158382612537565b60008181526004602052604090205490925015611c3457600101611c0b565b8183526000828152600460208181526040928390208651815590860151600182015591850151600283018054606088015160808901516001600160401b03908116600160801b0267ffffffffffffffff60801b19928216600160401b026fffffffffffffffffffffffffffffffff199094169190951617919091171691909117905560a0850151600383015560c085015190820180546001600160a01b039283166001600160a01b031990911617905560e08501516005830180546101008801511515600160a01b026001600160a81b031990911692909316919091179190911790556101208401518491906006820190611d2f9082613e77565b505050606084015115611d6d576060840151600090815260046020526040902054611d6d5760405163c5723b5160e01b815260040160405180910390fd5b82878681518110611d8057611d80613223565b60200260200101819052508360a00151868681518110611da257611da2613223565b6020026020010181815250508189602001518681518110611dc557611dc5613223565b6020026020010181815250508f8e6001600160a01b031685600001516001600160a01b03167f8bf46bf4cfd674fa735a3d63ec1c9ad4153f033c290341f3a588b75685141b3585604051611e199190612d36565b60405180910390a450505050611e2f8160010190565b9050611aba565b50611e4683838360008c8c612229565b845250919998505050505050505050565b60606000826001600160401b03811115611e7357611e7361325d565b604051908082528060200260200182016040528015611e9c578160200160208202803683370190505b508451909150600090815b81811015611f35576000878281518110611ec357611ec3613223565b6020026020010151905060008151905060005b81811015611f2157828181518110611ef057611ef0613223565b6020026020010151878781518110611f0a57611f0a613223565b602090810291909101015260019586019501611ed6565b505050611f2e8160010190565b9050611ea7565b509195945050505050565b6000828152600560205260409020546001600160401b031615611f76576040516317133ca360e11b815260040160405180910390fd5b600082815260056020526040808220805467ffffffffffffffff19166001600160401b0385169081179091559051909184917f5aafceeb1c7ad58e4a84898bdee37c02c0fc46e7d24e6b60e8209449f183459f9190a35050565b60606000611fdd83612596565b60010190506000816001600160401b03811115611ffc57611ffc61325d565b6040519080825280601f01601f191660200182016040528015612026576020820181803683370190505b5090508181016020015b600019016f181899199a1a9b1b9c1cb0b131b232b360811b600a86061a8153600a8504945084612030575b509392505050565b606060ff831461207d576120768361266e565b9050610698565b818054612089906135b6565b80601f01602080910402602001604051908101604052809291908181526020018280546120b5906135b6565b80156121025780601f106120d757610100808354040283529160200191612102565b820191906000526020600020905b8154815290600101906020018083116120e557829003601f168201915b50505050509050610698565b6000306001600160a01b037f00000000000000000000000000000000000000000000000000000000000000001614801561216757507f000000000000000000000000000000000000000000000000000000000000000046145b1561219157507f000000000000000000000000000000000000000000000000000000000000000090565b6110c76126ad565b60006106986121a661210e565b8360405161190160f01b8152600281019290925260228201526042902090565b60008060006121d58585612743565b909250905060008160048111156121ee576121ee613f3a565b14801561220c5750856001600160a01b0316826001600160a01b0316145b8061221d575061221d868686612788565b925050505b9392505050565b8451600090600181900361228157612279888860008151811061224e5761224e613223565b60200260200101518860008151811061226957612269613223565b6020026020010151888888612874565b91505061252d565b60208801516001600160a01b0381166122fc5760005b828110156122e1578781815181106122b1576122b1613223565b60200260200101516000146122d957604051631574f9f360e01b815260040160405180910390fd5b600101612297565b5083156122f1576122f185612ab0565b60009250505061252d565b600080826001600160a01b031663ce46e0466040518163ffffffff1660e01b8152600401602060405180830381865afa15801561233d573d6000803e3d6000fd5b505050506040513d601f19601f820116820180604052508101906123619190613f50565b905060005b848110156123ec5760008a828151811061238257612382613223565b602002602001015190508060000361239a57506123e4565b826123b857604051631574f9f360e01b815260040160405180910390fd5b888111156123d95760405163044044a560e21b815260040160405180910390fd5b978890039792909201915b600101612366565b508715612488576040516388e5b2d960e01b81526001600160a01b038416906388e5b2d9908490612423908e908e90600401613fe3565b60206040518083038185885af1158015612441573d6000803e3d6000fd5b50505050506040513d601f19601f820116820180604052508101906124669190613f50565b6124835760405163bf2f3a8b60e01b815260040160405180910390fd5b612518565b6040516348ed85bf60e11b81526001600160a01b038416906391db0b7e9084906124b8908e908e90600401613fe3565b60206040518083038185885af11580156124d6573d6000803e3d6000fd5b50505050506040513d601f19601f820116820180604052508101906124fb9190613f50565b6125185760405163e8bee83960e01b815260040160405180910390fd5b85156125275761252787612ab0565b50925050505b9695505050505050565b60208083015160c084015160e0850151604080870151606088015161010089015160a08a01516101208b0151945160009961257899989796918c910161407f565b60405160208183030381529060405280519060200120905092915050565b60008072184f03e93ff9f4daa797ed6e38ed64bf6a1f0160401b83106125d55772184f03e93ff9f4daa797ed6e38ed64bf6a1f0160401b830492506040015b6d04ee2d6d415b85acef81000000008310612601576d04ee2d6d415b85acef8100000000830492506020015b662386f26fc10000831061261f57662386f26fc10000830492506010015b6305f5e1008310612637576305f5e100830492506008015b612710831061264b57612710830492506004015b6064831061265d576064830492506002015b600a83106106985760010192915050565b6060600061267b83612ac3565b604080516020808252818301909252919250600091906020820181803683375050509182525060208101929092525090565b60007f8b73c3c69bb8fe3d512ecc4cf759cc79239f7b179b0ffacaa9a75d522b39400f7f00000000000000000000000000000000000000000000000000000000000000007f00000000000000000000000000000000000000000000000000000000000000004630604051602001612728959493929190614118565b60405160208183030381529060405280519060200120905090565b60008082516041036127795760208301516040840151606085015160001a61276d87828585612aeb565b94509450505050612781565b506000905060025b9250929050565b6000806000856001600160a01b0316631626ba7e60e01b86866040516024016127b292919061415a565b60408051601f198184030181529181526020820180516001600160e01b03166001600160e01b03199094169390931790925290516127f0919061417a565b600060405180830381855afa9150503d806000811461282b576040519150601f19603f3d011682016040523d82523d6000602084013e612830565b606091505b509150915081801561284457506020815110155b801561221d57508051630b135d3f60e11b906128699083016020908101908401614186565b149695505050505050565b60208601516000906001600160a01b0381166128c25785156128a957604051631574f9f360e01b815260040160405180910390fd5b82156128b8576128b884612ab0565b600091505061252d565b851561296e57806001600160a01b031663ce46e0466040518163ffffffff1660e01b8152600401602060405180830381865afa158015612906573d6000803e3d6000fd5b505050506040513d601f19601f8201168201806040525081019061292a9190613f50565b61294757604051631574f9f360e01b815260040160405180910390fd5b838611156129685760405163044044a560e21b815260040160405180910390fd5b85840393505b8415612a075760405163e49617e160e01b81526001600160a01b0382169063e49617e19088906129a2908b906004016130f0565b60206040518083038185885af11580156129c0573d6000803e3d6000fd5b50505050506040513d601f19601f820116820180604052508101906129e59190613f50565b612a025760405163ccf3bb2760e01b815260040160405180910390fd5b612a95565b60405163e60c350560e01b81526001600160a01b0382169063e60c3505908890612a35908b906004016130f0565b60206040518083038185885af1158015612a53573d6000803e3d6000fd5b50505050506040513d601f19601f82011682018060405250810190612a789190613f50565b612a955760405163bd8ba84d60e01b815260040160405180910390fd5b8215612aa457612aa484612ab0565b50939695505050505050565b8015612ac057612ac03382612ba2565b50565b600060ff8216601f81111561069857604051632cd44ac360e21b815260040160405180910390fd5b6000807f7fffffffffffffffffffffffffffffff5d576e7357a4501ddfe92f46681b20a0831115612b225750600090506003612b99565b600060018787878760405160008152602001604052604051612b4794939291906141b0565b6020604051602081039080840390855afa158015612b69573d6000803e3d6000fd5b5050604051601f1901519150506001600160a01b038116612b9257600060019250925050612b99565b9150600090505b94509492505050565b80471015612bcb5760405162461bcd60e51b8152600401612bc2906141e5565b60405180910390fd5b6000826001600160a01b031682604051612be490614220565b60006040518083038185875af1925050503d8060008114612c21576040519150601f19603f3d011682016040523d82523d6000602084013e612c26565b606091505b50509050806109dd5760405162461bcd60e51b8152600401612bc29061422b565b604080516101408101825260008082526020820181905291810182905260608082018390526080820183905260a0820183905260c0820183905260e0820183905261010082019290925261012081019190915290565b60008083601f840112612cb257612cb2600080fd5b5081356001600160401b03811115612ccc57612ccc600080fd5b60208301915083602082028301111561278157612781600080fd5b60008060208385031215612cfd57612cfd600080fd5b82356001600160401b03811115612d1657612d16600080fd5b612d2285828601612c9d565b92509250509250929050565b805b82525050565b602081016106988284612d2e565b6001600160401b038116612d30565b602081016106988284612d44565b60005b83811015612d7c578181015183820152602001612d64565b50506000910152565b6000612d8f825190565b808452602084019350612da6818560208601612d61565b601f01601f19169290920192915050565b602080825281016122228184612d85565b60006001600160a01b038216610698565b612de281612dc8565b8114612ac057600080fd5b803561069881612dd9565b600060208284031215612e0d57612e0d600080fd5b6000612e198484612ded565b949350505050565b600060e08284031215612e3657612e36600080fd5b50919050565b600060208284031215612e5157612e51600080fd5b81356001600160401b03811115612e6a57612e6a600080fd5b612e1984828501612e21565b6000612e828383612d2e565b505060200190565b6000612e94825190565b80845260209384019383018060005b83811015612ec8578151612eb78882612e76565b975060208301925050600101612ea3565b509495945050505050565b602080825281016122228184612e8a565b600060608284031215612e3657612e36600080fd5b600060608284031215612f0e57612f0e600080fd5b6000612e198484612ee4565b80612de2565b803561069881612f1a565b600060208284031215612f4057612f40600080fd5b6000612e198484612f20565b6001600160f81b03198116612d30565b612d3081612dc8565b6000612f6f825190565b80845260209384019383018060005b83811015612ec8578151612f928882612e76565b975060208301925050600101612f7e565b60e08101612fb1828a612f4c565b8181036020830152612fc38189612d85565b90508181036040830152612fd78188612d85565b9050612fe66060830187612d2e565b612ff36080830186612f5c565b61300060a0830185612d2e565b81810360c08301526130128184612f65565b9998505050505050505050565b801515612d30565b805160009061014084019061303c8582612d2e565b50602083015161304f6020860182612d2e565b5060408301516130626040860182612d44565b5060608301516130756060860182612d44565b5060808301516130886080860182612d44565b5060a083015161309b60a0860182612d2e565b5060c08301516130ae60c0860182612f5c565b5060e08301516130c160e0860182612f5c565b506101008301516130d661010086018261301f565b506101208301518482036101208601526117408282612d85565b602080825281016122228184613027565b60006101008284031215612e3657612e36600080fd5b6000610100828403121561312d5761312d600080fd5b6000612e198484613101565b6000806040838503121561314f5761314f600080fd5b600061315b8585612ded565b925050602061316c85828601612f20565b9150509250929050565b60208101610698828461301f565b60006106986001600160a01b03831661319b565b90565b6001600160a01b031690565b600061069882613184565b6000610698826131a7565b612d30816131b2565b6020810161069882846131bd565b600060408284031215612e3657612e36600080fd5b6000602082840312156131fe576131fe600080fd5b81356001600160401b0381111561321757613217600080fd5b612e19848285016131d4565b634e487b7160e01b600052603260045260246000fd5b60008235609e193684900301811261325357613253600080fd5b9190910192915050565b634e487b7160e01b600052604160045260246000fd5b601f19601f83011681018181106001600160401b03821117156132985761329861325d565b6040525050565b60006132aa60405190565b90506132b68282613273565b919050565b60006001600160401b038211156132d4576132d461325d565b5060209081020190565b6000604082840312156132f3576132f3600080fd5b6132fd604061329f565b9050600061330b8484612f20565b825250602061331c84848301612f20565b60208301525092915050565b600061333b613336846132bb565b61329f565b8381529050602081016040840283018581111561335a5761335a600080fd5b835b81811015613380578061336f88826132de565b84525060209092019160400161335c565b5050509392505050565b600082601f83011261339e5761339e600080fd5b8135612e19848260208601613328565b60ff8116612de2565b8035610698816133ae565b6000606082840312156133d7576133d7600080fd5b6133e1606061329f565b905060006133ef84846133b7565b825250602061340084848301612f20565b602083015250604061341484828501612f20565b60408301525092915050565b600061342e613336846132bb565b8381529050602081016060840283018581111561344d5761344d600080fd5b835b81811015613380578061346288826133c2565b84525060209092019160600161344f565b600082601f83011261348757613487600080fd5b8135612e19848260208601613420565b6001600160401b038116612de2565b803561069881613497565b600060a082840312156134c6576134c6600080fd5b6134d060a061329f565b905060006134de8484612f20565b82525060208201356001600160401b038111156134fd576134fd600080fd5b6135098482850161338a565b60208301525060408201356001600160401b0381111561352b5761352b600080fd5b61353784828501613473565b604083015250606061354b84828501612ded565b606083015250608061355f848285016134a6565b60808301525092915050565b600061069836836134b1565b634e487b7160e01b600052601160045260246000fd5b8181038181111561069857610698613577565b634e487b7160e01b600052602260045260246000fd5b6002810460018216806135ca57607f821691505b602082108103612e3657612e366135a0565b801515612de2565b8035610698816135dc565b60006001600160401b038211156136085761360861325d565b601f19601f83011660200192915050565b82818337506000910152565b6000613633613336846135ef565b90508281526020810184848401111561364e5761364e600080fd5b61205b848285613619565b600082601f83011261366d5761366d600080fd5b8135612e19848260208601613625565b600060c0828403121561369257613692600080fd5b61369c60c061329f565b905060006136aa8484612ded565b82525060206136bb848483016134a6565b60208301525060406136cf848285016135e4565b60408301525060606136e384828501612f20565b60608301525060808201356001600160401b0381111561370557613705600080fd5b61371184828501613659565b60808301525060a061372584828501612f20565b60a08301525092915050565b600060e0828403121561374657613746600080fd5b61375060a061329f565b9050600061375e8484612f20565b82525060208201356001600160401b0381111561377d5761377d600080fd5b6137898482850161367d565b602083015250604061379d848285016133c2565b60408301525060a06137b184828501612ded565b60608301525060c061355f848285016134a6565b60006106983683613731565b6000823560be193684900301811261325357613253600080fd5b6000610698368361367d565b60008235603e193684900301811261325357613253600080fd5b6000808335601e193685900301811261382c5761382c600080fd5b8084019250823591506001600160401b0382111561384c5761384c600080fd5b6020928301928202360383131561386557613865600080fd5b509250929050565b600061387b613336846132bb565b8381529050602080820190840283018581111561389a5761389a600080fd5b835b818110156133805780356001600160401b038111156138bd576138bd600080fd5b8086016138ca898261367d565b855250506020928301920161389c565b600061222236848461386d565b6000604082840312156138fc576138fc600080fd5b6000612e1984846132de565b6000808335601e193685900301811261392357613923600080fd5b8084019250823591506001600160401b0382111561394357613943600080fd5b60208301925060408202360383131561386557613865600080fd5b6000613968825190565b613976818560208601612d61565b9290920192915050565b601760f91b815260005b5060010190565b600061399d828661395e565b91506139a882613980565b91506139b4828561395e565b91506139bf82613980565b9150611740828461395e565b604081016139d98285612d2e565b6122226020830184612d2e565b6000808335601e1936859003018112613a0157613a01600080fd5b8084019250823591506001600160401b03821115613a2157613a21600080fd5b60208301925060608202360383131561386557613865600080fd5b600060608284031215613a5157613a51600080fd5b6000612e1984846133c2565b600060208284031215613a7257613a72600080fd5b6000612e1984846134a6565b60006101008284031215613a9457613a94600080fd5b613a9e60a061329f565b90506000613aac8484612f20565b8252506020613abd848483016132de565b6020830152506060613ad1848285016133c2565b60408301525060c0613ae584828501612ded565b60608301525060e061355f848285016134a6565b60006101008284031215613b0f57613b0f600080fd5b6000612e198484613a7e565b6000600019820361398a5761398a613577565b60e08101613b3c828a612d2e565b613b496020830189612f5c565b613b566040830188612d2e565b613b636060830187612d2e565b613b706080830186612d2e565b613b7d60a0830185612d2e565b613b8a60c0830184612d44565b98975050505050505050565b80612d30565b60006106988260f81b90565b612d3060ff8216613b9c565b6000613bc08286613b96565b602082019150613bd08285613b96565b602082019150613be08284613ba8565b506001019392505050565b805161069881612f1a565b600061069882612dc8565b612de281613bf6565b805161069881613c01565b8051610698816135dc565b6000613c2e613336846135ef565b905082815260208101848484011115613c4957613c49600080fd5b61205b848285612d61565b600082601f830112613c6857613c68600080fd5b8151612e19848260208601613c20565b600060808284031215613c8d57613c8d600080fd5b613c97608061329f565b90506000613ca58484613beb565b8252506020613cb684848301613c0a565b6020830152506040613cca84828501613c15565b60408301525060608201516001600160401b03811115613cec57613cec600080fd5b613cf884828501613c54565b60608301525092915050565b600060208284031215613d1957613d19600080fd5b81516001600160401b03811115613d3257613d32600080fd5b612e1984828501613c78565b6101608101613d4d828e612d2e565b613d5a602083018d612f5c565b613d67604083018c612d2e565b613d74606083018b612f5c565b613d81608083018a612d44565b613d8e60a083018961301f565b613d9b60c0830188612d2e565b613da860e0830187612d2e565b613db6610100830186612d2e565b613dc4610120830185612d2e565b613dd2610140830184612d44565b9c9b505050505050505050505050565b60006106986131988381565b613df783613de2565b815460001960089490940293841b1916921b91909117905550565b60006109dd818484613dee565b81811015613e3a57613e32600082613e12565b600101613e1f565b5050565b601f8211156109dd576000818152602090206020601f85010481016020851015613e655750805b6106526020601f860104830182613e1f565b81516001600160401b03811115613e9057613e9061325d565b613e9a82546135b6565b613ea5828285613e3e565b6020601f831160018114613ed95760008415613ec15750858201515b600019600886021c1981166002860217865550613f32565b600085815260208120601f198616915b82811015613f095788850151825560209485019460019092019101613ee9565b86831015613f255784890151600019601f89166008021c191682555b6001600288020188555050505b505050505050565b634e487b7160e01b600052602160045260246000fd5b600060208284031215613f6557613f65600080fd5b6000612e198484613c15565b60006122228383613027565b6000613f87825190565b80845260208401935083602082028501613fa18560200190565b8060005b85811015613fd65784840389528151613fbe8582613f71565b94506020830160209a909a0199925050600101613fa5565b5091979650505050505050565b60408082528101613ff48185613f7d565b90508181036020830152612e198184612f65565b60006106988260601b90565b600061069882614008565b612d3061402b82612dc8565b614014565b60006106988260c01b90565b612d306001600160401b038216614030565b600061069882613b9c565b612d3081151561404e565b60006106988260e01b90565b612d3063ffffffff8216614064565b600061408b828c613b96565b60208201915061409b828b61401f565b6014820191506140ab828a61401f565b6014820191506140bb828961403c565b6008820191506140cb828861403c565b6008820191506140db8287614059565b6001820191506140eb8286613b96565b6020820191506140fb828561395e565b91506141078284614070565b506004019998505050505050505050565b60a081016141268288612d2e565b6141336020830187612d2e565b6141406040830186612d2e565b61414d6060830185612d2e565b61252d6080830184612f5c565b604081016141688285612d2e565b8181036020830152612e198184612d85565b6000612222828461395e565b60006020828403121561419b5761419b600080fd5b6000612e198484613beb565b60ff8116612d30565b608081016141be8287612d2e565b6141cb60208301866141a7565b6141d86040830185612d2e565b6117406060830184612d2e565b6020808252810161069881601d81527f416464726573733a20696e73756666696369656e742062616c616e6365000000602082015260400190565b600061069882613198565b6020808252810161069881603a81527f416464726573733a20756e61626c6520746f2073656e642076616c75652c207260208201527f6563697069656e74206d6179206861766520726576657274656400000000000060408201526060019056fea2646970667358221220efb3c5fe9108730700109d5840bcd5c14d41906c99bc64355e7d54d31488729664736f6c63430008130033",
  "devdoc": {
    "events": {
      "Attested(address,address,bytes32,bytes32)": {
        "params": {
          "attester": "The attesting account.",
          "recipient": "The recipient of the attestation.",
          "schemaUID": "The UID of the schema.",
          "uid": "The UID the revoked attestation."
        }
      },
      "EIP712DomainChanged()": {
        "details": "MAY be emitted to signal that the domain could have changed."
      },
      "NonceIncreased(uint256,uint256)": {
        "params": {
          "newNonce": "The new value.",
          "oldNonce": "The previous nonce."
        }
      },
      "Revoked(address,address,bytes32,bytes32)": {
        "params": {
          "attester": "The attesting account.",
          "recipient": "The recipient of the attestation.",
          "schemaUID": "The UID of the schema.",
          "uid": "The UID the revoked attestation."
        }
      },
      "RevokedOffchain(address,bytes32,uint64)": {
        "params": {
          "data": "The data.",
          "revoker": "The address of the revoker.",
          "timestamp": "The timestamp."
        }
      },
      "Timestamped(bytes32,uint64)": {
        "params": {
          "data": "The data.",
          "timestamp": "The timestamp."
        }
      }
    },
    "kind": "dev",
    "methods": {
      "attest((bytes32,(address,uint64,bool,bytes32,bytes,uint256)))": {
        "params": {
          "request": "The arguments of the attestation request."
        },
        "returns": {
          "_0": "The UID of the new attestation. Example:     attest({         schema: \"0facc36681cbe2456019c1b0d1e7bedd6d1d40f6f324bf3dd3a4cef2999200a0\",         data: {             recipient: \"0xdEADBeAFdeAdbEafdeadbeafDeAdbEAFdeadbeaf\",             expirationTime: 0,             revocable: true,             refUID: \"0x0000000000000000000000000000000000000000000000000000000000000000\",             data: \"0xF00D\",             value: 0         }     })"
        }
      },
      "attestByDelegation((bytes32,(address,uint64,bool,bytes32,bytes,uint256),(uint8,bytes32,bytes32),address,uint64))": {
        "params": {
          "delegatedRequest": "The arguments of the delegated attestation request."
        },
        "returns": {
          "_0": "The UID of the new attestation. Example:     attestByDelegation({         schema: '0x8e72f5bc0a8d4be6aa98360baa889040c50a0e51f32dbf0baa5199bd93472ebc',         data: {             recipient: '0xf39Fd6e51aad88F6F4ce6aB8827279cffFb92266',             expirationTime: 1673891048,             revocable: true,             refUID: '0x0000000000000000000000000000000000000000000000000000000000000000',             data: '0x1234',             value: 0         },         signature: {             v: 28,             r: '0x148c...b25b',             s: '0x5a72...be22'         },         attester: '0xc5E8740aD971409492b1A63Db8d83025e0Fc427e',         deadline: 1673891048     })"
        }
      },
      "constructor": {
        "details": "Creates a new EAS instance.",
        "params": {
          "registry": "The address of the global schema registry."
        }
      },
      "eip712Domain()": {
        "details": "See {EIP-5267}. _Available since v4.9._"
      },
      "getAttestTypeHash()": {
        "returns": {
          "_0": "The EIP712 type hash for the attest function."
        }
      },
      "getAttestation(bytes32)": {
        "params": {
          "uid": "The UID of the attestation to retrieve."
        },
        "returns": {
          "_0": "The attestation data members."
        }
      },
      "getDomainSeparator()": {
        "returns": {
          "_0": "The domain separator used in the encoding of the signatures for attest, and revoke."
        }
      },
      "getName()": {
        "returns": {
          "_0": "The EIP712 name."
        }
      },
      "getNonce(address)": {
        "params": {
          "account": "The requested account."
        },
        "returns": {
          "_0": "The current nonce."
        }
      },
      "getRevokeOffchain(address,bytes32)": {
        "params": {
          "data": "The data to query."
        },
        "returns": {
          "_0": "The timestamp the data was timestamped with."
        }
      },
      "getRevokeTypeHash()": {
        "returns": {
          "_0": "The EIP712 type hash for the revoke function."
        }
      },
      "getSchemaRegistry()": {
        "returns": {
          "_0": "The address of the global schema registry."
        }
      },
      "getTimestamp(bytes32)": {
        "params": {
          "data": "The data to query."
        },
        "returns": {
          "_0": "The timestamp the data was timestamped with."
        }
      },
      "increaseNonce(uint256)": {
        "params": {
          "newNonce": "The (higher) new value."
        }
      },
      "isAttestationValid(bytes32)": {
        "params": {
          "uid": "The UID of the attestation to retrieve."
        },
        "returns": {
          "_0": "Whether an attestation exists."
        }
      },
      "multiAttest((bytes32,(address,uint64,bool,bytes32,bytes,uint256)[])[])": {
        "params": {
          "multiRequests": "The arguments of the multi attestation requests. The requests should be grouped by distinct     schema ids to benefit from the best batching optimization."
        },
        "returns": {
          "_0": "The UIDs of the new attestations. Example:     multiAttest([{         schema: '0x33e9094830a5cba5554d1954310e4fbed2ef5f859ec1404619adea4207f391fd',         data: [{             recipient: '0xdEADBeAFdeAdbEafdeadbeafDeAdbEAFdeadbeaf',             expirationTime: 1673891048,             revocable: true,             refUID: '0x0000000000000000000000000000000000000000000000000000000000000000',             data: '0x1234',             value: 1000         },         {             recipient: '0xf39Fd6e51aad88F6F4ce6aB8827279cffFb92266',             expirationTime: 0,             revocable: false,             refUID: '0x480df4a039efc31b11bfdf491b383ca138b6bde160988222a2a3509c02cee174',             data: '0x00',             value: 0         }],     },     {         schema: '0x5ac273ce41e3c8bfa383efe7c03e54c5f0bff29c9f11ef6ffa930fc84ca32425',         data: [{             recipient: '0xdEADBeAFdeAdbEafdeadbeafDeAdbEAFdeadbeaf',             expirationTime: 0,             revocable: true,             refUID: '0x75bf2ed8dca25a8190c50c52db136664de25b2449535839008ccfdab469b214f',             data: '0x12345678',             value: 0         },     }])"
        }
      },
      "multiAttestByDelegation((bytes32,(address,uint64,bool,bytes32,bytes,uint256)[],(uint8,bytes32,bytes32)[],address,uint64)[])": {
        "params": {
          "multiDelegatedRequests": "The arguments of the delegated multi attestation requests. The requests should be     grouped by distinct schema ids to benefit from the best batching optimization."
        },
        "returns": {
          "_0": "The UIDs of the new attestations. Example:     multiAttestByDelegation([{         schema: '0x8e72f5bc0a8d4be6aa98360baa889040c50a0e51f32dbf0baa5199bd93472ebc',         data: [{             recipient: '0xf39Fd6e51aad88F6F4ce6aB8827279cffFb92266',             expirationTime: 1673891048,             revocable: true,             refUID: '0x0000000000000000000000000000000000000000000000000000000000000000',             data: '0x1234',             value: 0         },         {             recipient: '0xdEADBeAFdeAdbEafdeadbeafDeAdbEAFdeadbeaf',             expirationTime: 0,             revocable: false,             refUID: '0x0000000000000000000000000000000000000000000000000000000000000000',             data: '0x00',             value: 0         }],         signatures: [{             v: 28,             r: '0x148c...b25b',             s: '0x5a72...be22'         },         {             v: 28,             r: '0x487s...67bb',             s: '0x12ad...2366'         }],         attester: '0x1D86495b2A7B524D747d2839b3C645Bed32e8CF4',         deadline: 1673891048     }])"
        }
      },
      "multiRevoke((bytes32,(bytes32,uint256)[])[])": {
        "params": {
          "multiRequests": "The arguments of the multi revocation requests. The requests should be grouped by distinct     schema ids to benefit from the best batching optimization. Example:     multiRevoke([{         schema: '0x8e72f5bc0a8d4be6aa98360baa889040c50a0e51f32dbf0baa5199bd93472ebc',         data: [{             uid: '0x211296a1ca0d7f9f2cfebf0daaa575bea9b20e968d81aef4e743d699c6ac4b25',             value: 1000         },         {             uid: '0xe160ac1bd3606a287b4d53d5d1d6da5895f65b4b4bab6d93aaf5046e48167ade',             value: 0         }],     },     {         schema: '0x5ac273ce41e3c8bfa383efe7c03e54c5f0bff29c9f11ef6ffa930fc84ca32425',         data: [{             uid: '0x053d42abce1fd7c8fcddfae21845ad34dae287b2c326220b03ba241bc5a8f019',             value: 0         },     }])"
        }
      },
      "multiRevokeByDelegation((bytes32,(bytes32,uint256)[],(uint8,bytes32,bytes32)[],address,uint64)[])": {
        "params": {
          "multiDelegatedRequests": "The arguments of the delegated multi revocation attestation requests. The requests     should be grouped by distinct schema ids to benefit from the best batching optimization. Example:     multiRevokeByDelegation([{         schema: '0x8e72f5bc0a8d4be6aa98360baa889040c50a0e51f32dbf0baa5199bd93472ebc',         data: [{             uid: '0x211296a1ca0d7f9f2cfebf0daaa575bea9b20e968d81aef4e743d699c6ac4b25',             value: 1000         },         {             uid: '0xe160ac1bd3606a287b4d53d5d1d6da5895f65b4b4bab6d93aaf5046e48167ade',             value: 0         }],         signatures: [{             v: 28,             r: '0x148c...b25b',             s: '0x5a72...be22'         },         {             v: 28,             r: '0x487s...67bb',             s: '0x12ad...2366'         }],         revoker: '0x244934dd3e31bE2c81f84ECf0b3E6329F5381992',         deadline: 1673891048     }])"
        }
      },
      "multiRevokeOffchain(bytes32[])": {
        "params": {
          "data": "The data to timestamp."
        },
        "returns": {
          "_0": "The timestamp the data was revoked with."
        }
      },
      "multiTimestamp(bytes32[])": {
        "params": {
          "data": "The data to timestamp."
        },
        "returns": {
          "_0": "The timestamp the data was timestamped with."
        }
      },
      "revoke((bytes32,(bytes32,uint256)))": {
        "params": {
          "request": "The arguments of the revocation request. Example:     revoke({         schema: '0x8e72f5bc0a8d4be6aa98360baa889040c50a0e51f32dbf0baa5199bd93472ebc',         data: {             uid: '0x101032e487642ee04ee17049f99a70590c735b8614079fc9275f9dd57c00966d',             value: 0         }     })"
        }
      },
      "revokeByDelegation((bytes32,(bytes32,uint256),(uint8,bytes32,bytes32),address,uint64))": {
        "params": {
          "delegatedRequest": "The arguments of the delegated revocation request. Example:     revokeByDelegation({         schema: '0x8e72f5bc0a8d4be6aa98360baa889040c50a0e51f32dbf0baa5199bd93472ebc',         data: {             uid: '0xcbbc12102578c642a0f7b34fe7111e41afa25683b6cd7b5a14caf90fa14d24ba',             value: 0         },         signature: {             v: 27,             r: '0xb593...7142',             s: '0x0f5b...2cce'         },         revoker: '0x244934dd3e31bE2c81f84ECf0b3E6329F5381992',         deadline: 1673891048     })"
        }
      },
      "revokeOffchain(bytes32)": {
        "params": {
          "data": "The data to timestamp."
        },
        "returns": {
          "_0": "The timestamp the data was revoked with."
        }
      },
      "timestamp(bytes32)": {
        "params": {
          "data": "The data to timestamp."
        },
        "returns": {
          "_0": "The timestamp the data was timestamped with."
        }
      },
      "version()": {
        "returns": {
          "_0": "Semver contract version as a string."
        }
      }
    },
    "title": "EAS",
    "version": 1
  },
  "userdoc": {
    "events": {
      "Attested(address,address,bytes32,bytes32)": {
        "notice": "Emitted when an attestation has been made."
      },
      "NonceIncreased(uint256,uint256)": {
        "notice": "Emitted when users invalidate nonces by increasing their nonces to (higher) new values."
      },
      "Revoked(address,address,bytes32,bytes32)": {
        "notice": "Emitted when an attestation has been revoked."
      },
      "RevokedOffchain(address,bytes32,uint64)": {
        "notice": "Emitted when a data has been revoked."
      },
      "Timestamped(bytes32,uint64)": {
        "notice": "Emitted when a data has been timestamped."
      }
    },
    "kind": "user",
    "methods": {
      "attest((bytes32,(address,uint64,bool,bytes32,bytes,uint256)))": {
        "notice": "Attests to a specific schema."
      },
      "attestByDelegation((bytes32,(address,uint64,bool,bytes32,bytes,uint256),(uint8,bytes32,bytes32),address,uint64))": {
        "notice": "Attests to a specific schema via the provided ECDSA signature."
      },
      "getAttestTypeHash()": {
        "notice": "Returns the EIP712 type hash for the attest function."
      },
      "getAttestation(bytes32)": {
        "notice": "Returns an existing attestation by UID."
      },
      "getDomainSeparator()": {
        "notice": "Returns the domain separator used in the encoding of the signatures for attest, and revoke."
      },
      "getName()": {
        "notice": "Returns the EIP712 name."
      },
      "getNonce(address)": {
        "notice": "Returns the current nonce per-account."
      },
      "getRevokeOffchain(address,bytes32)": {
        "notice": "Returns the timestamp that the specified data was timestamped with."
      },
      "getRevokeTypeHash()": {
        "notice": "Returns the EIP712 type hash for the revoke function."
      },
      "getSchemaRegistry()": {
        "notice": "Returns the address of the global schema registry."
      },
      "getTimestamp(bytes32)": {
        "notice": "Returns the timestamp that the specified data was timestamped with."
      },
      "increaseNonce(uint256)": {
        "notice": "Provides users an option to invalidate nonces by increasing their nonces to (higher) new values."
      },
      "isAttestationValid(bytes32)": {
        "notice": "Checks whether an attestation exists."
      },
      "multiAttest((bytes32,(address,uint64,bool,bytes32,bytes,uint256)[])[])": {
        "notice": "Attests to multiple schemas."
      },
      "multiAttestByDelegation((bytes32,(address,uint64,bool,bytes32,bytes,uint256)[],(uint8,bytes32,bytes32)[],address,uint64)[])": {
        "notice": "Attests to multiple schemas using via provided ECDSA signatures."
      },
      "multiRevoke((bytes32,(bytes32,uint256)[])[])": {
        "notice": "Revokes existing attestations to multiple schemas."
      },
      "multiRevokeByDelegation((bytes32,(bytes32,uint256)[],(uint8,bytes32,bytes32)[],address,uint64)[])": {
        "notice": "Revokes existing attestations to multiple schemas via provided ECDSA signatures."
      },
      "multiRevokeOffchain(bytes32[])": {
        "notice": "Revokes the specified multiple bytes32 data."
      },
      "multiTimestamp(bytes32[])": {
        "notice": "Timestamps the specified multiple bytes32 data."
      },
      "revoke((bytes32,(bytes32,uint256)))": {
        "notice": "Revokes an existing attestation to a specific schema."
      },
      "revokeByDelegation((bytes32,(bytes32,uint256),(uint8,bytes32,bytes32),address,uint64))": {
        "notice": "Revokes an existing attestation to a specific schema via the provided ECDSA signature."
      },
      "revokeOffchain(bytes32)": {
        "notice": "Revokes the specified bytes32 data."
      },
      "timestamp(bytes32)": {
        "notice": "Timestamps the specified bytes32 data."
      },
      "version()": {
        "notice": "Returns the full semver contract version."
      }
    },
    "notice": "The Ethereum Attestation Service protocol.",
    "version": 1
  },
  "storageLayout": {
    "storage": [
      {
        "astId": 2567,
        "contract": "contracts/EAS.sol:EAS",
        "label": "_nameFallback",
        "offset": 0,
        "slot": "0",
        "type": "t_string_storage"
      },
      {
        "astId": 2569,
        "contract": "contracts/EAS.sol:EAS",
        "label": "_versionFallback",
        "offset": 0,
        "slot": "1",
        "type": "t_string_storage"
      },
      {
        "astId": 6967,
        "contract": "contracts/EAS.sol:EAS",
        "label": "_name",
        "offset": 0,
        "slot": "2",
        "type": "t_string_storage"
      },
      {
        "astId": 6971,
        "contract": "contracts/EAS.sol:EAS",
        "label": "_nonces",
        "offset": 0,
        "slot": "3",
        "type": "t_mapping(t_address,t_uint256)"
      },
      {
        "astId": 3962,
        "contract": "contracts/EAS.sol:EAS",
        "label": "_db",
        "offset": 0,
        "slot": "4",
        "type": "t_mapping(t_bytes32,t_struct(Attestation)3856_storage)"
      },
      {
        "astId": 3966,
        "contract": "contracts/EAS.sol:EAS",
        "label": "_timestamps",
        "offset": 0,
        "slot": "5",
        "type": "t_mapping(t_bytes32,t_uint64)"
      },
      {
        "astId": 3972,
        "contract": "contracts/EAS.sol:EAS",
        "label": "_revocationsOffchain",
        "offset": 0,
        "slot": "6",
        "type": "t_mapping(t_address,t_mapping(t_bytes32,t_uint64))"
      }
    ],
    "types": {
      "t_address": {
        "encoding": "inplace",
        "label": "address",
        "numberOfBytes": "20"
      },
      "t_bool": {
        "encoding": "inplace",
        "label": "bool",
        "numberOfBytes": "1"
      },
      "t_bytes32": {
        "encoding": "inplace",
        "label": "bytes32",
        "numberOfBytes": "32"
      },
      "t_bytes_storage": {
        "encoding": "bytes",
        "label": "bytes",
        "numberOfBytes": "32"
      },
      "t_mapping(t_address,t_mapping(t_bytes32,t_uint64))": {
        "encoding": "mapping",
        "key": "t_address",
        "label": "mapping(address => mapping(bytes32 => uint64))",
        "numberOfBytes": "32",
        "value": "t_mapping(t_bytes32,t_uint64)"
      },
      "t_mapping(t_address,t_uint256)": {
        "encoding": "mapping",
        "key": "t_address",
        "label": "mapping(address => uint256)",
        "numberOfBytes": "32",
        "value": "t_uint256"
      },
      "t_mapping(t_bytes32,t_struct(Attestation)3856_storage)": {
        "encoding": "mapping",
        "key": "t_bytes32",
        "label": "mapping(bytes32 => struct Attestation)",
        "numberOfBytes": "32",
        "value": "t_struct(Attestation)3856_storage"
      },
      "t_mapping(t_bytes32,t_uint64)": {
        "encoding": "mapping",
        "key": "t_bytes32",
        "label": "mapping(bytes32 => uint64)",
        "numberOfBytes": "32",
        "value": "t_uint64"
      },
      "t_string_storage": {
        "encoding": "bytes",
        "label": "string",
        "numberOfBytes": "32"
      },
      "t_struct(Attestation)3856_storage": {
        "encoding": "inplace",
        "label": "struct Attestation",
        "members": [
          {
            "astId": 3837,
            "contract": "contracts/EAS.sol:EAS",
            "label": "uid",
            "offset": 0,
            "slot": "0",
            "type": "t_bytes32"
          },
          {
            "astId": 3839,
            "contract": "contracts/EAS.sol:EAS",
            "label": "schema",
            "offset": 0,
            "slot": "1",
            "type": "t_bytes32"
          },
          {
            "astId": 3841,
            "contract": "contracts/EAS.sol:EAS",
            "label": "time",
            "offset": 0,
            "slot": "2",
            "type": "t_uint64"
          },
          {
            "astId": 3843,
            "contract": "contracts/EAS.sol:EAS",
            "label": "expirationTime",
            "offset": 8,
            "slot": "2",
            "type": "t_uint64"
          },
          {
            "astId": 3845,
            "contract": "contracts/EAS.sol:EAS",
            "label": "revocationTime",
            "offset": 16,
            "slot": "2",
            "type": "t_uint64"
          },
          {
            "astId": 3847,
            "contract": "contracts/EAS.sol:EAS",
            "label": "refUID",
            "offset": 0,
            "slot": "3",
            "type": "t_bytes32"
          },
          {
            "astId": 3849,
            "contract": "contracts/EAS.sol:EAS",
            "label": "recipient",
            "offset": 0,
            "slot": "4",
            "type": "t_address"
          },
          {
            "astId": 3851,
            "contract": "contracts/EAS.sol:EAS",
            "label": "attester",
            "offset": 0,
            "slot": "5",
            "type": "t_address"
          },
          {
            "astId": 3853,
            "contract": "contracts/EAS.sol:EAS",
            "label": "revocable",
            "offset": 20,
            "slot": "5",
            "type": "t_bool"
          },
          {
            "astId": 3855,
            "contract": "contracts/EAS.sol:EAS",
            "label": "data",
            "offset": 0,
            "slot": "6",
            "type": "t_bytes_storage"
          }
        ],
        "numberOfBytes": "224"
      },
      "t_uint256": {
        "encoding": "inplace",
        "label": "uint256",
        "numberOfBytes": "32"
      },
      "t_uint64": {
        "encoding": "inplace",
        "label": "uint64",
        "numberOfBytes": "8"
      }
    }
  }
}