{
  "address": "0xBc58b8bd555A63c36Cff898604e318dF90B166d2",
  "abi": [
    {
      "inputs": [],
      "stateMutability": "nonpayable",
      "type": "constructor"
    },
    {
      "inputs": [],
      "name": "AlreadyExists",
      "type": "error"
    },
    {
      "anonymous": false,
      "inputs": [
        {
          "indexed": true,
          "internalType": "bytes32",
          "name": "uid",
          "type": "bytes32"
        },
        {
          "indexed": true,
          "internalType": "address",
          "name": "registerer",
          "type": "address"
        },
        {
          "components": [
            {
              "internalType": "bytes32",
              "name": "uid",
              "type": "bytes32"
            },
            {
              "internalType": "contract ISchemaResolver",
              "name": "resolver",
              "type": "address"
            },
            {
              "internalType": "bool",
              "name": "revocable",
              "type": "bool"
            },
            {
              "internalType": "string",
              "name": "schema",
              "type": "string"
            }
          ],
          "indexed": false,
          "internalType": "struct SchemaRecord",
          "name": "schema",
          "type": "tuple"
        }
      ],
      "name": "Registered",
      "type": "event"
    },
    {
      "inputs": [
        {
          "internalType": "bytes32",
          "name": "uid",
          "type": "bytes32"
        }
      ],
      "name": "getSchema",
      "outputs": [
        {
          "components": [
            {
              "internalType": "bytes32",
              "name": "uid",
              "type": "bytes32"
            },
            {
              "internalType": "contract ISchemaResolver",
              "name": "resolver",
              "type": "address"
            },
            {
              "internalType": "bool",
              "name": "revocable",
              "type": "bool"
            },
            {
              "internalType": "string",
              "name": "schema",
              "type": "string"
            }
          ],
          "internalType": "struct SchemaRecord",
          "name": "",
          "type": "tuple"
        }
      ],
      "stateMutability": "view",
      "type": "function"
    },
    {
      "inputs": [
        {
          "internalType": "string",
          "name": "schema",
          "type": "string"
        },
        {
          "internalType": "contract ISchemaResolver",
          "name": "resolver",
          "type": "address"
        },
        {
          "internalType": "bool",
          "name": "revocable",
          "type": "bool"
        }
      ],
      "name": "register",
      "outputs": [
        {
          "internalType": "bytes32",
          "name": "",
          "type": "bytes32"
        }
      ],
      "stateMutability": "nonpayable",
      "type": "function"
    },
    {
      "inputs": [],
      "name": "version",
      "outputs": [
        {
          "internalType": "string",
          "name": "",
          "type": "string"
        }
      ],
      "stateMutability": "view",
      "type": "function"
    }
  ],
  "transactionHash": "0x243f7a8bc0bd4dbbb88854871111114afdbd38610f101162ffc56b483cf4795f",
  "args": [],
  "numDeployments": 1,
  "solcInputHash": "75db587467f60d43e510ddb40e9eb52c",
  "bytecode": "0x60e060405234801561001057600080fd5b506001608052600360a052600060c05260805160a05160c051610aa861004c600039600060fd0152600060d40152600060ab0152610aa86000f3fe608060405234801561001057600080fd5b50600436106100415760003560e01c806354fd4d501461004657806360d7a27814610064578063a2ea7c6e14610084575b600080fd5b61004e6100a4565b60405161005b91906105ae565b60405180910390f35b610077610072366004610669565b610147565b60405161005b91906106e0565b6100976100923660046106ff565b6102a2565b60405161005b91906107cd565b60606100cf7f00000000000000000000000000000000000000000000000000000000000000006103ac565b6100f87f00000000000000000000000000000000000000000000000000000000000000006103ac565b6101217f00000000000000000000000000000000000000000000000000000000000000006103ac565b60405160200161013393929190610800565b604051602081830303815290604052905090565b60008060405180608001604052806000801b8152602001856001600160a01b03168152602001841515815260200187878080601f0160208091040260200160405190810160405280939291908181526020018383808284376000920182905250939094525092935091506101bc90508261043f565b600081815260208190526040902054909150156101ec5760405163119b4fd360e11b815260040160405180910390fd5b808252600081815260208181526040918290208451815590840151600182018054938601511515600160a01b026001600160a81b03199094166001600160a01b039092169190911792909217909155606083015183919060028201906102529082610931565b50905050336001600160a01b0316817fd0b86852e21f9e5fa4bc3b0cff9757ffe243d50c4b43968a42202153d651ea5e8460405161029091906107cd565b60405180910390a39695505050505050565b60408051608081018252600080825260208201819052918101919091526060808201526000828152602081815260409182902082516080810184528154815260018201546001600160a01b03811693820193909352600160a01b90920460ff1615159282019290925260028201805491929160608401919061032390610864565b80601f016020809104026020016040519081016040528092919081815260200182805461034f90610864565b801561039c5780601f106103715761010080835404028352916020019161039c565b820191906000526020600020905b81548152906001019060200180831161037f57829003601f168201915b5050505050815250509050919050565b606060006103b98361047f565b600101905060008167ffffffffffffffff8111156103d9576103d9610838565b6040519080825280601f01601f191660200182016040528015610403576020820181803683370190505b5090508181016020015b600019016f181899199a1a9b1b9c1cb0b131b232b360811b600a86061a8153600a850494508461040d57509392505050565b600081606001518260200151836040015160405160200161046293929190610a3f565b604051602081830303815290604052805190602001209050919050565b60008072184f03e93ff9f4daa797ed6e38ed64bf6a1f0160401b83106104be5772184f03e93ff9f4daa797ed6e38ed64bf6a1f0160401b830492506040015b6d04ee2d6d415b85acef810000000083106104ea576d04ee2d6d415b85acef8100000000830492506020015b662386f26fc10000831061050857662386f26fc10000830492506010015b6305f5e1008310610520576305f5e100830492506008015b612710831061053457612710830492506004015b60648310610546576064830492506002015b600a8310610552576001015b92915050565b60005b8381101561057357818101518382015260200161055b565b50506000910152565b6000610586825190565b80845260208401935061059d818560208601610558565b601f01601f19169290920192915050565b602080825281016105bf818461057c565b9392505050565b60008083601f8401126105db576105db600080fd5b50813567ffffffffffffffff8111156105f6576105f6600080fd5b60208301915083600182028301111561061157610611600080fd5b9250929050565b60006001600160a01b038216610552565b600061055282610618565b61063d81610629565b811461064857600080fd5b50565b803561055281610634565b80151561063d565b803561055281610656565b6000806000806060858703121561068257610682600080fd5b843567ffffffffffffffff81111561069c5761069c600080fd5b6106a8878288016105c6565b945094505060206106bb8782880161064b565b92505060406106cc8782880161065e565b91505092959194509250565b805b82525050565b6020810161055282846106d8565b8061063d565b8035610552816106ee565b60006020828403121561071457610714600080fd5b600061072084846106f4565b949350505050565b60006105526001600160a01b03831661073f565b90565b6001600160a01b031690565b600061055282610728565b60006105528261074b565b6106da81610756565b8015156106da565b8051600090608084019061078685826106d8565b5060208301516107996020860182610761565b5060408301516107ac604086018261076a565b50606083015184820360608601526107c4828261057c565b95945050505050565b602080825281016105bf8184610772565b60006107e8825190565b6107f6818560208601610558565b9290920192915050565b600061080c82866107de565b601760f91b8152600101915061082282856107de565b601760f91b815260010191506107c482846107de565b634e487b7160e01b600052604160045260246000fd5b634e487b7160e01b600052602260045260246000fd5b60028104600182168061087857607f821691505b60208210810361088a5761088a61084e565b50919050565b600061055261073c8381565b6108a583610890565b815460001960089490940293841b1916921b91909117905550565b60006108cd81848461089c565b505050565b818110156108ed576108e56000826108c0565b6001016108d2565b5050565b601f8211156108cd576000818152602090206020601f850104810160208510156109185750805b61092a6020601f8601048301826108d2565b5050505050565b815167ffffffffffffffff81111561094b5761094b610838565b6109558254610864565b6109608282856108f1565b6020601f831160018114610994576000841561097c5750858201515b600019600886021c19811660028602178655506109ed565b600085815260208120601f198616915b828110156109c457888501518255602094850194600190920191016109a4565b868310156109e05784890151600019601f89166008021c191682555b6001600288020188555050505b505050505050565b60006105528260601b90565b6000610552826109f5565b6106da610a1882610756565b610a01565b60006105528260f81b90565b600061055282610a1d565b6106da811515610a29565b6000610a4b82866107de565b9150610a578285610a0c565b601482019150610a678284610a34565b50600101939250505056fea26469706673582212209db5f73286131b947244cfd2cff57d4c57d99cbc33d3e1393b3f58ae5fb4bb7e64736f6c63430008130033",
  "devdoc": {
    "events": {
      "Registered(bytes32,address,(bytes32,address,bool,string))": {
        "params": {
          "registerer": "The address of the account used to register the schema.",
          "schema": "The schema data.",
          "uid": "The schema UID."
        }
      }
    },
    "kind": "dev",
    "methods": {
      "constructor": {
        "details": "Creates a new SchemaRegistry instance."
      },
      "getSchema(bytes32)": {
        "params": {
          "uid": "The UID of the schema to retrieve."
        },
        "returns": {
          "_0": "The schema data members."
        }
      },
      "register(string,address,bool)": {
        "params": {
          "resolver": "An optional schema resolver.",
          "revocable": "Whether the schema allows revocations explicitly.",
          "schema": "The schema data schema."
        },
        "returns": {
          "_0": "The UID of the new schema."
        }
      },
      "version()": {
        "returns": {
          "_0": "Semver contract version as a string."
        }
      }
    },
    "title": "SchemaRegistry",
    "version": 1
  },
  "userdoc": {
    "events": {
      "Registered(bytes32,address,(bytes32,address,bool,string))": {
        "notice": "Emitted when a new schema has been registered"
      }
    },
    "kind": "user",
    "methods": {
      "getSchema(bytes32)": {
        "notice": "Returns an existing schema by UID"
      },
      "register(string,address,bool)": {
        "notice": "Submits and reserves a new schema"
      },
      "version()": {
        "notice": "Returns the full semver contract version."
      }
    },
    "notice": "The global schema registry.",
    "version": 1
  },
  "storageLayout": {
    "storage": [
      {
        "astId": 6757,
        "contract": "contracts/SchemaRegistry.sol:SchemaRegistry",
        "label": "_registry",
        "offset": 0,
        "slot": "0",
        "type": "t_mapping(t_bytes32,t_struct(SchemaRecord)6139_storage)"
      }
    ],
    "types": {
      "t_bool": {
        "encoding": "inplace",
        "label": "bool",
        "numberOfBytes": "1"
      },
      "t_bytes32": {
        "encoding": "inplace",
        "label": "bytes32",
        "numberOfBytes": "32"
      },
      "t_contract(ISchemaResolver)8359": {
        "encoding": "inplace",
        "label": "contract ISchemaResolver",
        "numberOfBytes": "20"
      },
      "t_mapping(t_bytes32,t_struct(SchemaRecord)6139_storage)": {
        "encoding": "mapping",
        "key": "t_bytes32",
        "label": "mapping(bytes32 => struct SchemaRecord)",
        "numberOfBytes": "32",
        "value": "t_struct(SchemaRecord)6139_storage"
      },
      "t_string_storage": {
        "encoding": "bytes",
        "label": "string",
        "numberOfBytes": "32"
      },
      "t_struct(SchemaRecord)6139_storage": {
        "encoding": "inplace",
        "label": "struct SchemaRecord",
        "members": [
          {
            "astId": 6131,
            "contract": "contracts/SchemaRegistry.sol:SchemaRegistry",
            "label": "uid",
            "offset": 0,
            "slot": "0",
            "type": "t_bytes32"
          },
          {
            "astId": 6134,
            "contract": "contracts/SchemaRegistry.sol:SchemaRegistry",
            "label": "resolver",
            "offset": 0,
            "slot": "1",
            "type": "t_contract(ISchemaResolver)8359"
          },
          {
            "astId": 6136,
            "contract": "contracts/SchemaRegistry.sol:SchemaRegistry",
            "label": "revocable",
            "offset": 20,
            "slot": "1",
            "type": "t_bool"
          },
          {
            "astId": 6138,
            "contract": "contracts/SchemaRegistry.sol:SchemaRegistry",
            "label": "schema",
            "offset": 0,
            "slot": "2",
            "type": "t_string_storage"
          }
        ],
        "numberOfBytes": "96"
      }
    }
  }
}